{
  "contractName": "TicketFactory",
  "abi": [
    {
      "inputs": [
        {
          "internalType": "uint256",
          "name": "eventId",
          "type": "uint256"
        },
        {
          "internalType": "uint256",
          "name": "typeAQty",
          "type": "uint256"
        },
        {
          "internalType": "uint256",
          "name": "typeAPrice",
          "type": "uint256"
        },
        {
          "internalType": "uint256",
          "name": "typeBQty",
          "type": "uint256"
        },
        {
          "internalType": "uint256",
          "name": "typeBPrice",
          "type": "uint256"
        },
        {
          "internalType": "uint256",
          "name": "typeVIPQty",
          "type": "uint256"
        },
        {
          "internalType": "uint256",
          "name": "typeVIPPrice",
          "type": "uint256"
        },
        {
          "internalType": "bool",
          "name": "resellable",
          "type": "bool"
        }
      ],
      "name": "generateEventTickets",
      "outputs": [],
      "stateMutability": "nonpayable",
      "type": "function"
    },
    {
      "inputs": [
        {
          "internalType": "uint256",
          "name": "eventId",
          "type": "uint256"
        }
      ],
      "name": "getTicketsByEvent",
      "outputs": [
        {
          "components": [
            {
              "internalType": "uint256",
              "name": "eventId",
              "type": "uint256"
            },
            {
              "internalType": "uint256",
              "name": "ticketId",
              "type": "uint256"
            },
            {
              "internalType": "uint256",
              "name": "price",
              "type": "uint256"
            },
            {
              "internalType": "string",
              "name": "ticketType",
              "type": "string"
            },
            {
              "internalType": "address",
              "name": "owner",
              "type": "address"
            },
            {
              "internalType": "bool",
              "name": "resellable",
              "type": "bool"
            },
            {
              "internalType": "bool",
              "name": "sold",
              "type": "bool"
            },
            {
              "internalType": "uint256",
              "name": "row",
              "type": "uint256"
            },
            {
              "internalType": "uint256",
              "name": "column",
              "type": "uint256"
            }
          ],
          "internalType": "struct TicketFactory.Item[]",
          "name": "",
          "type": "tuple[]"
        }
      ],
      "stateMutability": "view",
      "type": "function",
      "constant": true
    }
  ],
  "bytecode": "0x608060405234801561001057600080fd5b50610a9c806100206000396000f3fe608060405234801561001057600080fd5b50600436106100365760003560e01c80630c73e5c31461003b5780636a61d06114610057575b600080fd5b610055600480360381019061005091906105f6565b610087565b005b610071600480360381019061006c91906105cd565b610157565b60405161007e919061085c565b60405180910390f35b6100c98888886040518060400160405280600581526020017f74797065410000000000000000000000000000000000000000000000000000008152508561031c565b61010b8886866040518060400160405280600581526020017f74797065420000000000000000000000000000000000000000000000000000008152508561031c565b61014d8884846040518060400160405280600781526020017f74797065564950000000000000000000000000000000000000000000000000008152508561031c565b5050505050505050565b6060600080838152602001908152602001600020600001805480602002602001604051908101604052809291908181526020016000905b828210156103115783829060005260206000209060070201604051806101200160405290816000820154815260200160018201548152602001600282015481526020016003820180546101e09061094e565b80601f016020809104026020016040519081016040528092919081815260200182805461020c9061094e565b80156102595780601f1061022e57610100808354040283529160200191610259565b820191906000526020600020905b81548152906001019060200180831161023c57829003601f168201915b505050505081526020016004820160009054906101000a900473ffffffffffffffffffffffffffffffffffffffff1673ffffffffffffffffffffffffffffffffffffffff1673ffffffffffffffffffffffffffffffffffffffff1681526020016004820160149054906101000a900460ff161515151581526020016004820160159054906101000a900460ff16151515158152602001600582015481526020016006820154815250508152602001906001019061018e565b505050509050919050565b6000806000878152602001908152602001600020905060006001905060006001905060005b878110156104f557600084600001805490509050846000016040518061012001604052808c81526020018381526020018a8152602001898152602001600073ffffffffffffffffffffffffffffffffffffffff16815260200188151581526020016000151581526020018681526020018581525090806001815401808255809150506001900390600052602060002090600702016000909190919091506000820151816000015560208201518160010155604082015181600201556060820151816003019080519060200190610418929190610500565b5060808201518160040160006101000a81548173ffffffffffffffffffffffffffffffffffffffff021916908373ffffffffffffffffffffffffffffffffffffffff16021790555060a08201518160040160146101000a81548160ff02191690831515021790555060c08201518160040160156101000a81548160ff02191690831515021790555060e082015181600501556101008201518160060155505082806104c290610980565b935050600a8311156104e1576001925083806104dd90610980565b9450505b5080806104ed90610980565b915050610341565b505050505050505050565b82805461050c9061094e565b90600052602060002090601f01602090048101928261052e5760008555610575565b82601f1061054757805160ff1916838001178555610575565b82800160010185558215610575579182015b82811115610574578251825591602001919060010190610559565b5b5090506105829190610586565b5090565b5b8082111561059f576000816000905550600101610587565b5090565b6000813590506105b281610a38565b92915050565b6000813590506105c781610a4f565b92915050565b6000602082840312156105df57600080fd5b60006105ed848285016105b8565b91505092915050565b600080600080600080600080610100898b03121561061357600080fd5b60006106218b828c016105b8565b98505060206106328b828c016105b8565b97505060406106438b828c016105b8565b96505060606106548b828c016105b8565b95505060806106658b828c016105b8565b94505060a06106768b828c016105b8565b93505060c06106878b828c016105b8565b92505060e06106988b828c016105a3565b9150509295985092959890939650565b60006106b48383610788565b905092915050565b6106c5816108d3565b82525050565b60006106d68261088e565b6106e081856108b1565b9350836020820285016106f28561087e565b8060005b8581101561072e578484038952815161070f85826106a8565b945061071a836108a4565b925060208a019950506001810190506106f6565b50829750879550505050505092915050565b610749816108e5565b82525050565b600061075a82610899565b61076481856108c2565b935061077481856020860161091b565b61077d81610a27565b840191505092915050565b6000610120830160008301516107a1600086018261084d565b5060208301516107b4602086018261084d565b5060408301516107c7604086018261084d565b50606083015184820360608601526107df828261074f565b91505060808301516107f460808601826106bc565b5060a083015161080760a0860182610740565b5060c083015161081a60c0860182610740565b5060e083015161082d60e086018261084d565b5061010083015161084261010086018261084d565b508091505092915050565b61085681610911565b82525050565b6000602082019050818103600083015261087681846106cb565b905092915050565b6000819050602082019050919050565b600081519050919050565b600081519050919050565b6000602082019050919050565b600082825260208201905092915050565b600082825260208201905092915050565b60006108de826108f1565b9050919050565b60008115159050919050565b600073ffffffffffffffffffffffffffffffffffffffff82169050919050565b6000819050919050565b60005b8381101561093957808201518184015260208101905061091e565b83811115610948576000848401525b50505050565b6000600282049050600182168061096657607f821691505b6020821081141561097a576109796109f8565b5b50919050565b600061098b82610911565b91507fffffffffffffffffffffffffffffffffffffffffffffffffffffffffffffffff8214156109be576109bd6109c9565b5b600182019050919050565b7f4e487b7100000000000000000000000000000000000000000000000000000000600052601160045260246000fd5b7f4e487b7100000000000000000000000000000000000000000000000000000000600052602260045260246000fd5b6000601f19601f8301169050919050565b610a41816108e5565b8114610a4c57600080fd5b50565b610a5881610911565b8114610a6357600080fd5b5056fea26469706673582212206bd116dbd0854d2b6bdaa369cae3d8fa6e03af888407c8551e04160d6c47d17664736f6c63430008000033",
  "immutableReferences": {},
  "source": "// SPDX-License-Identifier: MIT\r\npragma solidity ^0.8.0;\r\n\r\ncontract TicketFactory {\r\n    struct Item {\r\n        uint256 eventId;\r\n        uint256 ticketId;\r\n        uint256 price;\r\n        string ticketType;\r\n        address owner;\r\n        bool resellable;\r\n        bool sold;\r\n        uint256 row;\r\n        uint256 column;\r\n    }\r\n\r\n    struct EventTickets {\r\n        Item[] items;\r\n    }\r\n\r\n    // Mapping from eventId to the collection of tickets for that event\r\n    mapping(uint256 => EventTickets) private ticketsPerEvent;\r\n\r\n    // Generate tickets for an event with three categories: typeA, typeB, typeVIP\r\n    function generateEventTickets(\r\n        uint256 eventId,\r\n        uint256 typeAQty,\r\n        uint256 typeAPrice,\r\n        uint256 typeBQty,\r\n        uint256 typeBPrice,\r\n        uint256 typeVIPQty,\r\n        uint256 typeVIPPrice,\r\n        bool resellable\r\n    ) external {\r\n        _addTickets(eventId, typeAQty, typeAPrice, \"typeA\", resellable);\r\n        _addTickets(eventId, typeBQty, typeBPrice, \"typeB\", resellable);\r\n        _addTickets(eventId, typeVIPQty, typeVIPPrice, \"typeVIP\", resellable);\r\n    }\r\n\r\n    // Internal helper to add a batch of tickets for a specific event and ticket type\r\n    function _addTickets(\r\n        uint256 eventId,\r\n        uint256 quantity,\r\n        uint256 price,\r\n        string memory ticketType,\r\n        bool resellable\r\n    ) internal {\r\n        EventTickets storage eventTickets = ticketsPerEvent[eventId];\r\n\r\n        uint256 currentRow = 1;\r\n        uint256 currentColumn = 1;\r\n\r\n        for (uint256 i = 0; i < quantity; i++) {\r\n            uint256 ticketId = eventTickets.items.length;\r\n            eventTickets.items.push(Item({\r\n                eventId: eventId,\r\n                ticketId: ticketId,\r\n                price: price,\r\n                ticketType: ticketType,\r\n                owner: address(0),\r\n                resellable: resellable,\r\n                sold: false,\r\n                row: currentRow,\r\n                column: currentColumn\r\n            }));\r\n\r\n            currentColumn++;\r\n            if (currentColumn > 10) {\r\n                currentColumn = 1;\r\n                currentRow++;\r\n            }\r\n        }\r\n    }\r\n\r\n    // View function to get all tickets for an event\r\n    function getTicketsByEvent(uint256 eventId) external view returns (Item[] memory) {\r\n        return ticketsPerEvent[eventId].items;\r\n    }\r\n}\r\n",
  "sourcePath": "C:\\Users\\edgar\\Downloads\\blockchain_project\\contracts\\TicketFactory.sol",
  "compiler": {
    "name": "solc",
    "version": "0.8.0+commit.c7dfd78e.Emscripten.clang"
  },
  "schemaVersion": "3.4.16",
  "updatedAt": "2025-06-08T02:58:48.217Z",
  "networkType": "ethereum",
  "devdoc": {
    "kind": "dev",
    "methods": {},
    "version": 1
  },
  "userdoc": {
    "kind": "user",
    "methods": {},
    "version": 1
  }
}