{
  "contractName": "Events",
  "abi": [
    {
      "inputs": [
        {
          "internalType": "address",
          "name": "_ticketFactoryAddress",
          "type": "address"
        }
      ],
      "stateMutability": "nonpayable",
      "type": "constructor"
    },
    {
      "anonymous": false,
      "inputs": [
        {
          "indexed": false,
          "internalType": "uint256",
          "name": "eventId",
          "type": "uint256"
        },
        {
          "indexed": false,
          "internalType": "string",
          "name": "title",
          "type": "string"
        },
        {
          "indexed": false,
          "internalType": "string",
          "name": "place",
          "type": "string"
        }
      ],
      "name": "EventCreated",
      "type": "event"
    },
    {
      "inputs": [
        {
          "internalType": "uint256",
          "name": "",
          "type": "uint256"
        }
      ],
      "name": "events",
      "outputs": [
        {
          "internalType": "uint256",
          "name": "eventId",
          "type": "uint256"
        },
        {
          "internalType": "string",
          "name": "title",
          "type": "string"
        },
        {
          "internalType": "string",
          "name": "description",
          "type": "string"
        },
        {
          "internalType": "string",
          "name": "category",
          "type": "string"
        },
        {
          "internalType": "string",
          "name": "place",
          "type": "string"
        },
        {
          "internalType": "uint256",
          "name": "date",
          "type": "uint256"
        },
        {
          "internalType": "uint256",
          "name": "ticketsSold",
          "type": "uint256"
        },
        {
          "internalType": "bool",
          "name": "isActive",
          "type": "bool"
        }
      ],
      "stateMutability": "view",
      "type": "function",
      "constant": true
    },
    {
      "inputs": [],
      "name": "ticketFactory",
      "outputs": [
        {
          "internalType": "contract TicketFactory",
          "name": "",
          "type": "address"
        }
      ],
      "stateMutability": "view",
      "type": "function",
      "constant": true
    },
    {
      "inputs": [
        {
          "internalType": "string",
          "name": "_title",
          "type": "string"
        },
        {
          "internalType": "string",
          "name": "_description",
          "type": "string"
        },
        {
          "internalType": "string",
          "name": "_category",
          "type": "string"
        },
        {
          "internalType": "string",
          "name": "_place",
          "type": "string"
        },
        {
          "internalType": "uint256",
          "name": "_eventDate",
          "type": "uint256"
        }
      ],
      "name": "createEvent",
      "outputs": [],
      "stateMutability": "nonpayable",
      "type": "function"
    },
    {
      "inputs": [
        {
          "internalType": "uint256",
          "name": "_typeAQty",
          "type": "uint256"
        },
        {
          "internalType": "uint256",
          "name": "_typeAPrice",
          "type": "uint256"
        },
        {
          "internalType": "uint256",
          "name": "_typeBQty",
          "type": "uint256"
        },
        {
          "internalType": "uint256",
          "name": "_typeBPrice",
          "type": "uint256"
        },
        {
          "internalType": "uint256",
          "name": "_typeVIPQty",
          "type": "uint256"
        },
        {
          "internalType": "uint256",
          "name": "_typeVIPPrice",
          "type": "uint256"
        },
        {
          "internalType": "bool",
          "name": "_resellable",
          "type": "bool"
        }
      ],
      "name": "generateEventTickets",
      "outputs": [],
      "stateMutability": "nonpayable",
      "type": "function"
    },
    {
      "inputs": [],
      "name": "displayEvents",
      "outputs": [
        {
          "components": [
            {
              "internalType": "uint256",
              "name": "eventId",
              "type": "uint256"
            },
            {
              "internalType": "string",
              "name": "title",
              "type": "string"
            },
            {
              "internalType": "string",
              "name": "description",
              "type": "string"
            },
            {
              "internalType": "string",
              "name": "category",
              "type": "string"
            },
            {
              "internalType": "string",
              "name": "place",
              "type": "string"
            },
            {
              "internalType": "uint256",
              "name": "date",
              "type": "uint256"
            },
            {
              "internalType": "uint256",
              "name": "ticketsSold",
              "type": "uint256"
            },
            {
              "internalType": "bool",
              "name": "isActive",
              "type": "bool"
            }
          ],
          "internalType": "struct Events.Event[]",
          "name": "",
          "type": "tuple[]"
        }
      ],
      "stateMutability": "view",
      "type": "function",
      "constant": true
    },
    {
      "inputs": [
        {
          "internalType": "uint256",
          "name": "_eventId",
          "type": "uint256"
        }
      ],
      "name": "getEvent",
      "outputs": [
        {
          "components": [
            {
              "internalType": "uint256",
              "name": "eventId",
              "type": "uint256"
            },
            {
              "internalType": "string",
              "name": "title",
              "type": "string"
            },
            {
              "internalType": "string",
              "name": "description",
              "type": "string"
            },
            {
              "internalType": "string",
              "name": "category",
              "type": "string"
            },
            {
              "internalType": "string",
              "name": "place",
              "type": "string"
            },
            {
              "internalType": "uint256",
              "name": "date",
              "type": "uint256"
            },
            {
              "internalType": "uint256",
              "name": "ticketsSold",
              "type": "uint256"
            },
            {
              "internalType": "bool",
              "name": "isActive",
              "type": "bool"
            }
          ],
          "internalType": "struct Events.Event",
          "name": "",
          "type": "tuple"
        }
      ],
      "stateMutability": "view",
      "type": "function",
      "constant": true
    },
    {
      "inputs": [],
      "name": "getEventsCount",
      "outputs": [
        {
          "internalType": "uint256",
          "name": "",
          "type": "uint256"
        }
      ],
      "stateMutability": "view",
      "type": "function",
      "constant": true
    }
  ],
  "bytecode": "0x60806040523480156200001157600080fd5b506040516200191238038062001912833981810160405281019062000037919062000095565b806000806101000a81548173ffffffffffffffffffffffffffffffffffffffff021916908373ffffffffffffffffffffffffffffffffffffffff160217905550506200010f565b6000815190506200008f81620000f5565b92915050565b600060208284031215620000a857600080fd5b6000620000b8848285016200007e565b91505092915050565b6000620000ce82620000d5565b9050919050565b600073ffffffffffffffffffffffffffffffffffffffff82169050919050565b6200010081620000c1565b81146200010c57600080fd5b50565b6117f3806200011f6000396000f3fe608060405234801561001057600080fd5b506004361061007d5760003560e01c806330366d5f1161005b57806330366d5f146100f557806334820aac146101135780636d1884e01461012f578063bdcf5b8e1461015f5761007d565b8063068f46ce146100825780630b791430146100a057806317775923146100d7575b600080fd5b61008a61017b565b6040516100979190611333565b60405180910390f35b6100ba60048036038101906100b59190610efa565b61019f565b6040516100ce989796959493929190611410565b60405180910390f35b6100df610424565b6040516100ec9190611311565b60405180910390f35b6100fd610705565b60405161010a91906113b0565b60405180910390f35b61012d60048036038101906101289190610f23565b610712565b005b61014960048036038101906101449190610efa565b610812565b604051610156919061138e565b60405180910390f35b61017960048036038101906101749190610e23565b610b3d565b005b60008054906101000a900473ffffffffffffffffffffffffffffffffffffffff1681565b600181815481106101af57600080fd5b90600052602060002090600802016000915090508060000154908060010180546101d8906116bf565b80601f0160208091040260200160405190810160405280929190818152602001828054610204906116bf565b80156102515780601f1061022657610100808354040283529160200191610251565b820191906000526020600020905b81548152906001019060200180831161023457829003601f168201915b505050505090806002018054610266906116bf565b80601f0160208091040260200160405190810160405280929190818152602001828054610292906116bf565b80156102df5780601f106102b4576101008083540402835291602001916102df565b820191906000526020600020905b8154815290600101906020018083116102c257829003601f168201915b5050505050908060030180546102f4906116bf565b80601f0160208091040260200160405190810160405280929190818152602001828054610320906116bf565b801561036d5780601f106103425761010080835404028352916020019161036d565b820191906000526020600020905b81548152906001019060200180831161035057829003601f168201915b505050505090806004018054610382906116bf565b80601f01602080910402602001604051908101604052809291908181526020018280546103ae906116bf565b80156103fb5780601f106103d0576101008083540402835291602001916103fb565b820191906000526020600020905b8154815290600101906020018083116103de57829003601f168201915b5050505050908060050154908060060154908060070160009054906101000a900460ff16905088565b60606001805480602002602001604051908101604052809291908181526020016000905b828210156106fc57838290600052602060002090600802016040518061010001604052908160008201548152602001600182018054610486906116bf565b80601f01602080910402602001604051908101604052809291908181526020018280546104b2906116bf565b80156104ff5780601f106104d4576101008083540402835291602001916104ff565b820191906000526020600020905b8154815290600101906020018083116104e257829003601f168201915b50505050508152602001600282018054610518906116bf565b80601f0160208091040260200160405190810160405280929190818152602001828054610544906116bf565b80156105915780601f1061056657610100808354040283529160200191610591565b820191906000526020600020905b81548152906001019060200180831161057457829003601f168201915b505050505081526020016003820180546105aa906116bf565b80601f01602080910402602001604051908101604052809291908181526020018280546105d6906116bf565b80156106235780601f106105f857610100808354040283529160200191610623565b820191906000526020600020905b81548152906001019060200180831161060657829003601f168201915b5050505050815260200160048201805461063c906116bf565b80601f0160208091040260200160405190810160405280929190818152602001828054610668906116bf565b80156106b55780601f1061068a576101008083540402835291602001916106b5565b820191906000526020600020905b81548152906001019060200180831161069857829003601f168201915b5050505050815260200160058201548152602001600682015481526020016007820160009054906101000a900460ff16151515158152505081526020019060010190610448565b50505050905090565b6000600180549050905090565b60006001805490501161075a576040517f08c379a00000000000000000000000000000000000000000000000000000000081526004016107519061134e565b60405180910390fd5b60006001808054905061076d91906115ef565b905060008054906101000a900473ffffffffffffffffffffffffffffffffffffffff1673ffffffffffffffffffffffffffffffffffffffff16630c155484828a8a8a8a8a8a8a6040518963ffffffff1660e01b81526004016107d69897969594939291906114aa565b600060405180830381600087803b1580156107f057600080fd5b505af1158015610804573d6000803e3d6000fd5b505050505050505050505050565b61081a610ca7565b6001805490508210610861576040517f08c379a00000000000000000000000000000000000000000000000000000000081526004016108589061136e565b60405180910390fd5b6001828154811061089b577f4e487b7100000000000000000000000000000000000000000000000000000000600052603260045260246000fd5b906000526020600020906008020160405180610100016040529081600082015481526020016001820180546108cf906116bf565b80601f01602080910402602001604051908101604052809291908181526020018280546108fb906116bf565b80156109485780601f1061091d57610100808354040283529160200191610948565b820191906000526020600020905b81548152906001019060200180831161092b57829003601f168201915b50505050508152602001600282018054610961906116bf565b80601f016020809104026020016040519081016040528092919081815260200182805461098d906116bf565b80156109da5780601f106109af576101008083540402835291602001916109da565b820191906000526020600020905b8154815290600101906020018083116109bd57829003601f168201915b505050505081526020016003820180546109f3906116bf565b80601f0160208091040260200160405190810160405280929190818152602001828054610a1f906116bf565b8015610a6c5780601f10610a4157610100808354040283529160200191610a6c565b820191906000526020600020905b815481529060010190602001808311610a4f57829003601f168201915b50505050508152602001600482018054610a85906116bf565b80601f0160208091040260200160405190810160405280929190818152602001828054610ab1906116bf565b8015610afe5780601f10610ad357610100808354040283529160200191610afe565b820191906000526020600020905b815481529060010190602001808311610ae157829003601f168201915b5050505050815260200160058201548152602001600682015481526020016007820160009054906101000a900460ff1615151515815250509050919050565b60006001805490509050600160405180610100016040528083815260200188815260200187815260200186815260200185815260200184815260200160008152602001600115158152509080600181540180825580915050600190039060005260206000209060080201600090919091909150600082015181600001556020820151816001019080519060200190610bd6929190610cee565b506040820151816002019080519060200190610bf3929190610cee565b506060820151816003019080519060200190610c10929190610cee565b506080820151816004019080519060200190610c2d929190610cee565b5060a0820151816005015560c0820151816006015560e08201518160070160006101000a81548160ff02191690831515021790555050507fa66af77df260a5c03634cc608c4576078655b434f4b7e128a6e3e7ec73341974818785604051610c97939291906113cb565b60405180910390a1505050505050565b604051806101000160405280600081526020016060815260200160608152602001606081526020016060815260200160008152602001600081526020016000151581525090565b828054610cfa906116bf565b90600052602060002090601f016020900481019282610d1c5760008555610d63565b82601f10610d3557805160ff1916838001178555610d63565b82800160010185558215610d63579182015b82811115610d62578251825591602001919060010190610d47565b5b509050610d709190610d74565b5090565b5b80821115610d8d576000816000905550600101610d75565b5090565b6000610da4610d9f84611559565b611528565b905082815260208101848484011115610dbc57600080fd5b610dc784828561167d565b509392505050565b600081359050610dde8161178f565b92915050565b600082601f830112610df557600080fd5b8135610e05848260208601610d91565b91505092915050565b600081359050610e1d816117a6565b92915050565b600080600080600060a08688031215610e3b57600080fd5b600086013567ffffffffffffffff811115610e5557600080fd5b610e6188828901610de4565b955050602086013567ffffffffffffffff811115610e7e57600080fd5b610e8a88828901610de4565b945050604086013567ffffffffffffffff811115610ea757600080fd5b610eb388828901610de4565b935050606086013567ffffffffffffffff811115610ed057600080fd5b610edc88828901610de4565b9250506080610eed88828901610e0e565b9150509295509295909350565b600060208284031215610f0c57600080fd5b6000610f1a84828501610e0e565b91505092915050565b600080600080600080600060e0888a031215610f3e57600080fd5b6000610f4c8a828b01610e0e565b9750506020610f5d8a828b01610e0e565b9650506040610f6e8a828b01610e0e565b9550506060610f7f8a828b01610e0e565b9450506080610f908a828b01610e0e565b93505060a0610fa18a828b01610e0e565b92505060c0610fb28a828b01610dcf565b91505092959891949750929550565b6000610fcd8383611169565b905092915050565b6000610fe082611599565b610fea81856115bc565b935083602082028501610ffc85611589565b8060005b8581101561103857848403895281516110198582610fc1565b9450611024836115af565b925060208a01995050600181019050611000565b50829750879550505050505092915050565b61105381611623565b82525050565b61106281611623565b82525050565b61107181611659565b82525050565b6000611082826115a4565b61108c81856115cd565b935061109c81856020860161168c565b6110a58161177e565b840191505092915050565b60006110bb826115a4565b6110c581856115de565b93506110d581856020860161168c565b6110de8161177e565b840191505092915050565b60006110f66015836115de565b91507f4e6f206576656e747320637265617465642079657400000000000000000000006000830152602082019050919050565b60006111366014836115de565b91507f4576656e7420646f6573206e6f742065786973740000000000000000000000006000830152602082019050919050565b60006101008301600083015161118260008601826112f3565b506020830151848203602086015261119a8282611077565b915050604083015184820360408601526111b48282611077565b915050606083015184820360608601526111ce8282611077565b915050608083015184820360808601526111e88282611077565b91505060a08301516111fd60a08601826112f3565b5060c083015161121060c08601826112f3565b5060e083015161122360e086018261104a565b508091505092915050565b60006101008301600083015161124760008601826112f3565b506020830151848203602086015261125f8282611077565b915050604083015184820360408601526112798282611077565b915050606083015184820360608601526112938282611077565b915050608083015184820360808601526112ad8282611077565b91505060a08301516112c260a08601826112f3565b5060c08301516112d560c08601826112f3565b5060e08301516112e860e086018261104a565b508091505092915050565b6112fc8161164f565b82525050565b61130b8161164f565b82525050565b6000602082019050818103600083015261132b8184610fd5565b905092915050565b60006020820190506113486000830184611068565b92915050565b60006020820190508181036000830152611367816110e9565b9050919050565b6000602082019050818103600083015261138781611129565b9050919050565b600060208201905081810360008301526113a8818461122e565b905092915050565b60006020820190506113c56000830184611302565b92915050565b60006060820190506113e06000830186611302565b81810360208301526113f281856110b0565b9050818103604083015261140681846110b0565b9050949350505050565b600061010082019050611426600083018b611302565b8181036020830152611438818a6110b0565b9050818103604083015261144c81896110b0565b9050818103606083015261146081886110b0565b9050818103608083015261147481876110b0565b905061148360a0830186611302565b61149060c0830185611302565b61149d60e0830184611059565b9998505050505050505050565b6000610100820190506114c0600083018b611302565b6114cd602083018a611302565b6114da6040830189611302565b6114e76060830188611302565b6114f46080830187611302565b61150160a0830186611302565b61150e60c0830185611302565b61151b60e0830184611059565b9998505050505050505050565b6000604051905081810181811067ffffffffffffffff8211171561154f5761154e61174f565b5b8060405250919050565b600067ffffffffffffffff8211156115745761157361174f565b5b601f19601f8301169050602081019050919050565b6000819050602082019050919050565b600081519050919050565b600081519050919050565b6000602082019050919050565b600082825260208201905092915050565b600082825260208201905092915050565b600082825260208201905092915050565b60006115fa8261164f565b91506116058361164f565b925082821015611618576116176116f1565b5b828203905092915050565b60008115159050919050565b600073ffffffffffffffffffffffffffffffffffffffff82169050919050565b6000819050919050565b60006116648261166b565b9050919050565b60006116768261162f565b9050919050565b82818337600083830152505050565b60005b838110156116aa57808201518184015260208101905061168f565b838111156116b9576000848401525b50505050565b600060028204905060018216806116d757607f821691505b602082108114156116eb576116ea611720565b5b50919050565b7f4e487b7100000000000000000000000000000000000000000000000000000000600052601160045260246000fd5b7f4e487b7100000000000000000000000000000000000000000000000000000000600052602260045260246000fd5b7f4e487b7100000000000000000000000000000000000000000000000000000000600052604160045260246000fd5b6000601f19601f8301169050919050565b61179881611623565b81146117a357600080fd5b50565b6117af8161164f565b81146117ba57600080fd5b5056fea26469706673582212202e9f8affeccb92cb3351cb4a5940e7cb3a2894d428bf1da4baaafe7233050e3f64736f6c63430008000033",
  "immutableReferences": {},
  "source": "// SPDX-License-Identifier: MIT\r\npragma solidity ^0.8.0;\r\n\r\nimport \"./TicketFactory.sol\";\r\n\r\ncontract Events {\r\n    // Define a struct to hold event details\r\n    struct Event {\r\n        uint256 eventId;\r\n        string title;\r\n        string description;\r\n        string category;\r\n        string place;\r\n        uint256 date; // Using a Unix timestamp for date\r\n        uint256 ticketsSold;\r\n        bool isActive;\r\n    }\r\n\r\n    TicketFactory public ticketFactory;\r\n\r\n    // Store events in an array\r\n    Event[] public events;\r\n\r\n    // Event to notify when a new event is created\r\n    event EventCreated(uint256 eventId, string title, string place);\r\n\r\n    // Constructor to initialize the TicketFactory address\r\n    constructor(address _ticketFactoryAddress) {\r\n        ticketFactory = TicketFactory(_ticketFactoryAddress);\r\n    }\r\n\r\n    // Function to create a new event\r\n    function createEvent(\r\n        string memory _title, \r\n        string memory _description, \r\n        string memory _category,\r\n        string memory _place, \r\n        uint256 _eventDate\r\n    ) \r\n        external \r\n    {\r\n        uint256 eventId = events.length;\r\n\r\n        events.push(Event({\r\n            eventId: eventId,\r\n            title: _title,\r\n            description: _description,\r\n            category: _category,\r\n            place: _place,\r\n            date: _eventDate,\r\n            ticketsSold: 0,\r\n            isActive: true\r\n        }));\r\n\r\n        emit EventCreated(eventId, _title, _place);\r\n    }\r\n\r\n    function generateEventTickets(\r\n        uint256 _typeAQty, \r\n        uint256 _typeAPrice,\r\n        uint256 _typeBQty, \r\n        uint256 _typeBPrice,\r\n        uint256 _typeVIPQty, \r\n        uint256 _typeVIPPrice,\r\n        bool _resellable\r\n    )\r\n        external\r\n    {\r\n        require(events.length > 0, \"No events created yet\");\r\n\r\n        uint256 eventId = events.length - 1;\r\n\r\n        // Call addItems function of the TicketFactory contract\r\n        ticketFactory.addItems(\r\n        eventId, \r\n        _typeAQty, \r\n        _typeAPrice, \r\n        _typeBQty, \r\n        _typeBPrice, \r\n        _typeVIPQty, \r\n        _typeVIPPrice,\r\n        _resellable);\r\n    }\r\n\r\n    // Function to display all events\r\n    function displayEvents() external view returns (Event[] memory) {\r\n        return events;\r\n    }\r\n    // Function to get event details by ID\r\n    function getEvent(uint256 _eventId) external view returns (Event memory) {\r\n        require(_eventId < events.length, \"Event does not exist\");\r\n        return events[_eventId];\r\n    }\r\n\r\n    function getEventsCount() public view returns (uint256) {\r\n        return events.length;\r\n    }\r\n}\r\n",
  "sourcePath": "C:\\Users\\edgar\\Downloads\\blockchain_project\\contracts\\Events.sol",
  "compiler": {
    "name": "solc",
    "version": "0.8.0+commit.c7dfd78e.Emscripten.clang"
  },
  "schemaVersion": "3.4.16",
  "updatedAt": "2025-02-17T00:48:10.754Z",
  "networkType": "ethereum",
  "devdoc": {
    "kind": "dev",
    "methods": {},
    "version": 1
  },
  "userdoc": {
    "kind": "user",
    "methods": {},
    "version": 1
  }
}