{
  "contractName": "Events",
  "abi": [
    {
      "inputs": [
        {
          "internalType": "address",
          "name": "_ticketFactoryAddress",
          "type": "address"
        }
      ],
      "stateMutability": "nonpayable",
      "type": "constructor"
    },
    {
      "anonymous": false,
      "inputs": [
        {
          "indexed": false,
          "internalType": "uint256",
          "name": "eventId",
          "type": "uint256"
        },
        {
          "indexed": false,
          "internalType": "string",
          "name": "title",
          "type": "string"
        },
        {
          "indexed": false,
          "internalType": "string",
          "name": "place",
          "type": "string"
        }
      ],
      "name": "EventCreated",
      "type": "event"
    },
    {
      "inputs": [
        {
          "internalType": "uint256",
          "name": "",
          "type": "uint256"
        }
      ],
      "name": "eventIds",
      "outputs": [
        {
          "internalType": "uint256",
          "name": "",
          "type": "uint256"
        }
      ],
      "stateMutability": "view",
      "type": "function",
      "constant": true
    },
    {
      "inputs": [
        {
          "internalType": "uint256",
          "name": "",
          "type": "uint256"
        }
      ],
      "name": "events",
      "outputs": [
        {
          "internalType": "uint256",
          "name": "eventId",
          "type": "uint256"
        },
        {
          "internalType": "string",
          "name": "title",
          "type": "string"
        },
        {
          "internalType": "string",
          "name": "description",
          "type": "string"
        },
        {
          "internalType": "string",
          "name": "category",
          "type": "string"
        },
        {
          "internalType": "string",
          "name": "place",
          "type": "string"
        },
        {
          "internalType": "uint256",
          "name": "date",
          "type": "uint256"
        },
        {
          "internalType": "uint256",
          "name": "ticketsSold",
          "type": "uint256"
        },
        {
          "internalType": "bool",
          "name": "isActive",
          "type": "bool"
        }
      ],
      "stateMutability": "view",
      "type": "function",
      "constant": true
    },
    {
      "inputs": [],
      "name": "ticketFactory",
      "outputs": [
        {
          "internalType": "contract TicketFactory",
          "name": "",
          "type": "address"
        }
      ],
      "stateMutability": "view",
      "type": "function",
      "constant": true
    },
    {
      "inputs": [],
      "name": "totalEvents",
      "outputs": [
        {
          "internalType": "uint256",
          "name": "",
          "type": "uint256"
        }
      ],
      "stateMutability": "view",
      "type": "function",
      "constant": true
    },
    {
      "inputs": [
        {
          "internalType": "string",
          "name": "_title",
          "type": "string"
        },
        {
          "internalType": "string",
          "name": "_description",
          "type": "string"
        },
        {
          "internalType": "string",
          "name": "_category",
          "type": "string"
        },
        {
          "internalType": "string",
          "name": "_place",
          "type": "string"
        },
        {
          "internalType": "uint256",
          "name": "_eventDate",
          "type": "uint256"
        }
      ],
      "name": "createEvent",
      "outputs": [],
      "stateMutability": "nonpayable",
      "type": "function"
    },
    {
      "inputs": [
        {
          "internalType": "uint256",
          "name": "eventId",
          "type": "uint256"
        },
        {
          "internalType": "uint256",
          "name": "typeAQty",
          "type": "uint256"
        },
        {
          "internalType": "uint256",
          "name": "typeAPrice",
          "type": "uint256"
        },
        {
          "internalType": "uint256",
          "name": "typeBQty",
          "type": "uint256"
        },
        {
          "internalType": "uint256",
          "name": "typeBPrice",
          "type": "uint256"
        },
        {
          "internalType": "uint256",
          "name": "typeVIPQty",
          "type": "uint256"
        },
        {
          "internalType": "uint256",
          "name": "typeVIPPrice",
          "type": "uint256"
        },
        {
          "internalType": "bool",
          "name": "resellable",
          "type": "bool"
        }
      ],
      "name": "generateTicketsForEvent",
      "outputs": [],
      "stateMutability": "nonpayable",
      "type": "function"
    },
    {
      "inputs": [],
      "name": "displayEvents",
      "outputs": [
        {
          "components": [
            {
              "internalType": "uint256",
              "name": "eventId",
              "type": "uint256"
            },
            {
              "internalType": "string",
              "name": "title",
              "type": "string"
            },
            {
              "internalType": "string",
              "name": "description",
              "type": "string"
            },
            {
              "internalType": "string",
              "name": "category",
              "type": "string"
            },
            {
              "internalType": "string",
              "name": "place",
              "type": "string"
            },
            {
              "internalType": "uint256",
              "name": "date",
              "type": "uint256"
            },
            {
              "internalType": "uint256",
              "name": "ticketsSold",
              "type": "uint256"
            },
            {
              "internalType": "bool",
              "name": "isActive",
              "type": "bool"
            }
          ],
          "internalType": "struct Events.Event[]",
          "name": "",
          "type": "tuple[]"
        }
      ],
      "stateMutability": "view",
      "type": "function",
      "constant": true
    },
    {
      "inputs": [
        {
          "internalType": "uint256",
          "name": "_eventId",
          "type": "uint256"
        }
      ],
      "name": "getEvent",
      "outputs": [
        {
          "components": [
            {
              "internalType": "uint256",
              "name": "eventId",
              "type": "uint256"
            },
            {
              "internalType": "string",
              "name": "title",
              "type": "string"
            },
            {
              "internalType": "string",
              "name": "description",
              "type": "string"
            },
            {
              "internalType": "string",
              "name": "category",
              "type": "string"
            },
            {
              "internalType": "string",
              "name": "place",
              "type": "string"
            },
            {
              "internalType": "uint256",
              "name": "date",
              "type": "uint256"
            },
            {
              "internalType": "uint256",
              "name": "ticketsSold",
              "type": "uint256"
            },
            {
              "internalType": "bool",
              "name": "isActive",
              "type": "bool"
            }
          ],
          "internalType": "struct Events.Event",
          "name": "",
          "type": "tuple"
        }
      ],
      "stateMutability": "view",
      "type": "function",
      "constant": true
    },
    {
      "inputs": [],
      "name": "getEventsCount",
      "outputs": [
        {
          "internalType": "uint256",
          "name": "",
          "type": "uint256"
        }
      ],
      "stateMutability": "view",
      "type": "function",
      "constant": true
    }
  ],
  "bytecode": "0x60806040523480156200001157600080fd5b5060405162001a1f38038062001a1f833981810160405281019062000037919062000096565b80600360006101000a81548173ffffffffffffffffffffffffffffffffffffffff021916908373ffffffffffffffffffffffffffffffffffffffff1602179055505062000110565b6000815190506200009081620000f6565b92915050565b600060208284031215620000a957600080fd5b6000620000b9848285016200007f565b91505092915050565b6000620000cf82620000d6565b9050919050565b600073ffffffffffffffffffffffffffffffffffffffff82169050919050565b6200010181620000c2565b81146200010d57600080fd5b50565b6118ff80620001206000396000f3fe608060405234801561001057600080fd5b50600436106100935760003560e01c806346cb6d311161006657806346cb6d31146101295780636d1884e014610145578063998f6ac014610175578063ba870686146101a5578063bdcf5b8e146101c357610093565b8063068f46ce146100985780630b791430146100b657806317775923146100ed57806330366d5f1461010b575b600080fd5b6100a06101df565b6040516100ad919061144a565b60405180910390f35b6100d060048036038101906100cb919061103d565b610205565b6040516100e4989796959493929190611507565b60405180910390f35b6100f561047a565b6040516101029190611428565b60405180910390f35b61011361084b565b60405161012091906114a7565b60405180910390f35b610143600480360381019061013e9190611066565b610855565b005b61015f600480360381019061015a919061103d565b61093e565b60405161016c9190611485565b60405180910390f35b61018f600480360381019061018a919061103d565b610c30565b60405161019c91906114a7565b60405180910390f35b6101ad610c54565b6040516101ba91906114a7565b60405180910390f35b6101dd60048036038101906101d89190610f66565b610c5a565b005b600360009054906101000a900473ffffffffffffffffffffffffffffffffffffffff1681565b600060205280600052604060002060009150905080600001549080600101805461022e90611782565b80601f016020809104026020016040519081016040528092919081815260200182805461025a90611782565b80156102a75780601f1061027c576101008083540402835291602001916102a7565b820191906000526020600020905b81548152906001019060200180831161028a57829003601f168201915b5050505050908060020180546102bc90611782565b80601f01602080910402602001604051908101604052809291908181526020018280546102e890611782565b80156103355780601f1061030a57610100808354040283529160200191610335565b820191906000526020600020905b81548152906001019060200180831161031857829003601f168201915b50505050509080600301805461034a90611782565b80601f016020809104026020016040519081016040528092919081815260200182805461037690611782565b80156103c35780601f10610398576101008083540402835291602001916103c3565b820191906000526020600020905b8154815290600101906020018083116103a657829003601f168201915b5050505050908060040180546103d890611782565b80601f016020809104026020016040519081016040528092919081815260200182805461040490611782565b80156104515780601f1061042657610100808354040283529160200191610451565b820191906000526020600020905b81548152906001019060200180831161043457829003601f168201915b5050505050908060050154908060060154908060070160009054906101000a900460ff16905088565b6060600060025467ffffffffffffffff8111156104c0577f4e487b7100000000000000000000000000000000000000000000000000000000600052604160045260246000fd5b6040519080825280602002602001820160405280156104f957816020015b6104e6610dea565b8152602001906001900390816104de5790505b50905060005b6002548110156108435760008060018381548110610546577f4e487b7100000000000000000000000000000000000000000000000000000000600052603260045260246000fd5b90600052602060002001548152602001908152602001600020604051806101000160405290816000820154815260200160018201805461058590611782565b80601f01602080910402602001604051908101604052809291908181526020018280546105b190611782565b80156105fe5780601f106105d3576101008083540402835291602001916105fe565b820191906000526020600020905b8154815290600101906020018083116105e157829003601f168201915b5050505050815260200160028201805461061790611782565b80601f016020809104026020016040519081016040528092919081815260200182805461064390611782565b80156106905780601f1061066557610100808354040283529160200191610690565b820191906000526020600020905b81548152906001019060200180831161067357829003601f168201915b505050505081526020016003820180546106a990611782565b80601f01602080910402602001604051908101604052809291908181526020018280546106d590611782565b80156107225780601f106106f757610100808354040283529160200191610722565b820191906000526020600020905b81548152906001019060200180831161070557829003601f168201915b5050505050815260200160048201805461073b90611782565b80601f016020809104026020016040519081016040528092919081815260200182805461076790611782565b80156107b45780601f10610789576101008083540402835291602001916107b4565b820191906000526020600020905b81548152906001019060200180831161079757829003601f168201915b5050505050815260200160058201548152602001600682015481526020016007820160009054906101000a900460ff161515151581525050828281518110610825577f4e487b7100000000000000000000000000000000000000000000000000000000600052603260045260246000fd5b6020026020010181905250808061083b906117b4565b9150506104ff565b508091505090565b6000600254905090565b6002548810610899576040517f08c379a000000000000000000000000000000000000000000000000000000000815260040161089090611465565b60405180910390fd5b600360009054906101000a900473ffffffffffffffffffffffffffffffffffffffff1673ffffffffffffffffffffffffffffffffffffffff16630c73e5c389898989898989896040518963ffffffff1660e01b81526004016109029897969594939291906115a1565b600060405180830381600087803b15801561091c57600080fd5b505af1158015610930573d6000803e3d6000fd5b505050505050505050505050565b610946610dea565b600254821061098a576040517f08c379a000000000000000000000000000000000000000000000000000000000815260040161098190611465565b60405180910390fd5b60008083815260200190815260200160002060405180610100016040529081600082015481526020016001820180546109c290611782565b80601f01602080910402602001604051908101604052809291908181526020018280546109ee90611782565b8015610a3b5780601f10610a1057610100808354040283529160200191610a3b565b820191906000526020600020905b815481529060010190602001808311610a1e57829003601f168201915b50505050508152602001600282018054610a5490611782565b80601f0160208091040260200160405190810160405280929190818152602001828054610a8090611782565b8015610acd5780601f10610aa257610100808354040283529160200191610acd565b820191906000526020600020905b815481529060010190602001808311610ab057829003601f168201915b50505050508152602001600382018054610ae690611782565b80601f0160208091040260200160405190810160405280929190818152602001828054610b1290611782565b8015610b5f5780601f10610b3457610100808354040283529160200191610b5f565b820191906000526020600020905b815481529060010190602001808311610b4257829003601f168201915b50505050508152602001600482018054610b7890611782565b80601f0160208091040260200160405190810160405280929190818152602001828054610ba490611782565b8015610bf15780601f10610bc657610100808354040283529160200191610bf1565b820191906000526020600020905b815481529060010190602001808311610bd457829003601f168201915b5050505050815260200160058201548152602001600682015481526020016007820160009054906101000a900460ff1615151515815250509050919050565b60018181548110610c4057600080fd5b906000526020600020016000915090505481565b60025481565b600060025490506040518061010001604052808281526020018781526020018681526020018581526020018481526020018381526020016000815260200160011515815250600080838152602001908152602001600020600082015181600001556020820151816001019080519060200190610cd7929190610e31565b506040820151816002019080519060200190610cf4929190610e31565b506060820151816003019080519060200190610d11929190610e31565b506080820151816004019080519060200190610d2e929190610e31565b5060a0820151816005015560c0820151816006015560e08201518160070160006101000a81548160ff021916908315150217905550905050600181908060018154018082558091505060019003906000526020600020016000909190919091505560026000815480929190610da2906117b4565b91905055507fa66af77df260a5c03634cc608c4576078655b434f4b7e128a6e3e7ec73341974818785604051610dda939291906114c2565b60405180910390a1505050505050565b604051806101000160405280600081526020016060815260200160608152602001606081526020016060815260200160008152602001600081526020016000151581525090565b828054610e3d90611782565b90600052602060002090601f016020900481019282610e5f5760008555610ea6565b82601f10610e7857805160ff1916838001178555610ea6565b82800160010185558215610ea6579182015b82811115610ea5578251825591602001919060010190610e8a565b5b509050610eb39190610eb7565b5090565b5b80821115610ed0576000816000905550600101610eb8565b5090565b6000610ee7610ee284611650565b61161f565b905082815260208101848484011115610eff57600080fd5b610f0a848285611740565b509392505050565b600081359050610f218161189b565b92915050565b600082601f830112610f3857600080fd5b8135610f48848260208601610ed4565b91505092915050565b600081359050610f60816118b2565b92915050565b600080600080600060a08688031215610f7e57600080fd5b600086013567ffffffffffffffff811115610f9857600080fd5b610fa488828901610f27565b955050602086013567ffffffffffffffff811115610fc157600080fd5b610fcd88828901610f27565b945050604086013567ffffffffffffffff811115610fea57600080fd5b610ff688828901610f27565b935050606086013567ffffffffffffffff81111561101357600080fd5b61101f88828901610f27565b925050608061103088828901610f51565b9150509295509295909350565b60006020828403121561104f57600080fd5b600061105d84828501610f51565b91505092915050565b600080600080600080600080610100898b03121561108357600080fd5b60006110918b828c01610f51565b98505060206110a28b828c01610f51565b97505060406110b38b828c01610f51565b96505060606110c48b828c01610f51565b95505060806110d58b828c01610f51565b94505060a06110e68b828c01610f51565b93505060c06110f78b828c01610f51565b92505060e06111088b828c01610f12565b9150509295985092959890939650565b60006111248383611280565b905092915050565b600061113782611690565b61114181856116b3565b93508360208202850161115385611680565b8060005b8581101561118f57848403895281516111708582611118565b945061117b836116a6565b925060208a01995050600181019050611157565b50829750879550505050505092915050565b6111aa816116e6565b82525050565b6111b9816116e6565b82525050565b6111c88161171c565b82525050565b60006111d98261169b565b6111e381856116c4565b93506111f381856020860161174f565b6111fc8161188a565b840191505092915050565b60006112128261169b565b61121c81856116d5565b935061122c81856020860161174f565b6112358161188a565b840191505092915050565b600061124d6014836116d5565b91507f4576656e7420646f6573206e6f742065786973740000000000000000000000006000830152602082019050919050565b600061010083016000830151611299600086018261140a565b50602083015184820360208601526112b182826111ce565b915050604083015184820360408601526112cb82826111ce565b915050606083015184820360608601526112e582826111ce565b915050608083015184820360808601526112ff82826111ce565b91505060a083015161131460a086018261140a565b5060c083015161132760c086018261140a565b5060e083015161133a60e08601826111a1565b508091505092915050565b60006101008301600083015161135e600086018261140a565b506020830151848203602086015261137682826111ce565b9150506040830151848203604086015261139082826111ce565b915050606083015184820360608601526113aa82826111ce565b915050608083015184820360808601526113c482826111ce565b91505060a08301516113d960a086018261140a565b5060c08301516113ec60c086018261140a565b5060e08301516113ff60e08601826111a1565b508091505092915050565b61141381611712565b82525050565b61142281611712565b82525050565b60006020820190508181036000830152611442818461112c565b905092915050565b600060208201905061145f60008301846111bf565b92915050565b6000602082019050818103600083015261147e81611240565b9050919050565b6000602082019050818103600083015261149f8184611345565b905092915050565b60006020820190506114bc6000830184611419565b92915050565b60006060820190506114d76000830186611419565b81810360208301526114e98185611207565b905081810360408301526114fd8184611207565b9050949350505050565b60006101008201905061151d600083018b611419565b818103602083015261152f818a611207565b905081810360408301526115438189611207565b905081810360608301526115578188611207565b9050818103608083015261156b8187611207565b905061157a60a0830186611419565b61158760c0830185611419565b61159460e08301846111b0565b9998505050505050505050565b6000610100820190506115b7600083018b611419565b6115c4602083018a611419565b6115d16040830189611419565b6115de6060830188611419565b6115eb6080830187611419565b6115f860a0830186611419565b61160560c0830185611419565b61161260e08301846111b0565b9998505050505050505050565b6000604051905081810181811067ffffffffffffffff821117156116465761164561185b565b5b8060405250919050565b600067ffffffffffffffff82111561166b5761166a61185b565b5b601f19601f8301169050602081019050919050565b6000819050602082019050919050565b600081519050919050565b600081519050919050565b6000602082019050919050565b600082825260208201905092915050565b600082825260208201905092915050565b600082825260208201905092915050565b60008115159050919050565b600073ffffffffffffffffffffffffffffffffffffffff82169050919050565b6000819050919050565b60006117278261172e565b9050919050565b6000611739826116f2565b9050919050565b82818337600083830152505050565b60005b8381101561176d578082015181840152602081019050611752565b8381111561177c576000848401525b50505050565b6000600282049050600182168061179a57607f821691505b602082108114156117ae576117ad61182c565b5b50919050565b60006117bf82611712565b91507fffffffffffffffffffffffffffffffffffffffffffffffffffffffffffffffff8214156117f2576117f16117fd565b5b600182019050919050565b7f4e487b7100000000000000000000000000000000000000000000000000000000600052601160045260246000fd5b7f4e487b7100000000000000000000000000000000000000000000000000000000600052602260045260246000fd5b7f4e487b7100000000000000000000000000000000000000000000000000000000600052604160045260246000fd5b6000601f19601f8301169050919050565b6118a4816116e6565b81146118af57600080fd5b50565b6118bb81611712565b81146118c657600080fd5b5056fea2646970667358221220697ea26d595152d4069bcce7e1fc4a0ef3d590ee157012ab8432f1ed62f7ecac64736f6c63430008000033",
  "immutableReferences": {},
  "source": "// SPDX-License-Identifier: MIT\r\npragma solidity ^0.8.0;\r\n\r\nimport \"./TicketFactory.sol\";\r\n\r\ncontract Events {\r\n    // Define a struct to hold event details\r\n    struct Event {\r\n        uint256 eventId;\r\n        string title;\r\n        string description;\r\n        string category;\r\n        string place;\r\n        uint256 date; // Using a Unix timestamp for date\r\n        uint256 ticketsSold;\r\n        bool isActive;\r\n    }\r\n\r\n    // Store events in a mapping by ID\r\n    mapping(uint256 => Event) public events;\r\n\r\n    // Store all event IDs for iteration\r\n    uint256[] public eventIds;\r\n\r\n    // Counter for total events created\r\n    uint256 public totalEvents;\r\n\r\n    // Event to notify when a new event is created\r\n    event EventCreated(uint256 eventId, string title, string place);\r\n\r\n    TicketFactory public ticketFactory;\r\n\r\n    // Initialize the TicketFactory address when deploying Events\r\n    constructor(address _ticketFactoryAddress) {\r\n        ticketFactory = TicketFactory(_ticketFactoryAddress);\r\n    }\r\n\r\n    // Function to create a new event\r\n    function createEvent(\r\n        string memory _title,\r\n        string memory _description,\r\n        string memory _category,\r\n        string memory _place,\r\n        uint256 _eventDate\r\n    ) external {\r\n        uint256 eventId = totalEvents;\r\n\r\n        events[eventId] = Event({\r\n            eventId: eventId,\r\n            title: _title,\r\n            description: _description,\r\n            category: _category,\r\n            place: _place,\r\n            date: _eventDate,\r\n            ticketsSold: 0,\r\n            isActive: true\r\n        });\r\n\r\n        eventIds.push(eventId);\r\n        totalEvents++;\r\n\r\n        emit EventCreated(eventId, _title, _place);\r\n    }\r\n\r\n    function generateTicketsForEvent(\r\n        uint256 eventId,\r\n        uint256 typeAQty,\r\n        uint256 typeAPrice,\r\n        uint256 typeBQty,\r\n        uint256 typeBPrice,\r\n        uint256 typeVIPQty,\r\n        uint256 typeVIPPrice,\r\n        bool resellable\r\n    ) external {\r\n        require(eventId < totalEvents, \"Event does not exist\");\r\n\r\n        // maybe add access control here\r\n        ticketFactory.generateEventTickets(\r\n            eventId,\r\n            typeAQty,\r\n            typeAPrice,\r\n            typeBQty,\r\n            typeBPrice,\r\n            typeVIPQty,\r\n            typeVIPPrice,\r\n            resellable\r\n        );\r\n    }\r\n\r\n    // Function to display all events\r\n    function displayEvents() external view returns (Event[] memory) {\r\n        Event[] memory allEvents = new Event[](totalEvents);\r\n        for (uint256 i = 0; i < totalEvents; i++) {\r\n            allEvents[i] = events[eventIds[i]];\r\n        }\r\n        return allEvents;\r\n    }\r\n\r\n    // Function to get event details by ID\r\n    function getEvent(uint256 _eventId) external view returns (Event memory) {\r\n        require(_eventId < totalEvents, \"Event does not exist\");\r\n        return events[_eventId];\r\n    }\r\n\r\n    function getEventsCount() public view returns (uint256) {\r\n        return totalEvents;\r\n    }\r\n}\r\n",
  "sourcePath": "C:\\Users\\edgar\\Downloads\\blockchain_project\\contracts\\Events.sol",
  "compiler": {
    "name": "solc",
    "version": "0.8.0+commit.c7dfd78e.Emscripten.clang"
  },
  "schemaVersion": "3.4.16",
  "updatedAt": "2025-06-08T02:58:48.202Z",
  "networkType": "ethereum",
  "devdoc": {
    "kind": "dev",
    "methods": {},
    "version": 1
  },
  "userdoc": {
    "kind": "user",
    "methods": {},
    "version": 1
  }
}