{
  "contractName": "Events",
  "abi": [
    {
      "inputs": [
        {
          "internalType": "address",
          "name": "_ticketFactoryAddress",
          "type": "address"
        }
      ],
      "stateMutability": "nonpayable",
      "type": "constructor"
    },
    {
      "anonymous": false,
      "inputs": [
        {
          "indexed": false,
          "internalType": "uint256",
          "name": "eventId",
          "type": "uint256"
        },
        {
          "indexed": false,
          "internalType": "string",
          "name": "title",
          "type": "string"
        },
        {
          "indexed": false,
          "internalType": "string",
          "name": "place",
          "type": "string"
        }
      ],
      "name": "EventCreated",
      "type": "event"
    },
    {
      "inputs": [
        {
          "internalType": "uint256",
          "name": "",
          "type": "uint256"
        }
      ],
      "name": "eventIds",
      "outputs": [
        {
          "internalType": "uint256",
          "name": "",
          "type": "uint256"
        }
      ],
      "stateMutability": "view",
      "type": "function"
    },
    {
      "inputs": [
        {
          "internalType": "uint256",
          "name": "",
          "type": "uint256"
        }
      ],
      "name": "events",
      "outputs": [
        {
          "internalType": "uint256",
          "name": "eventId",
          "type": "uint256"
        },
        {
          "internalType": "string",
          "name": "title",
          "type": "string"
        },
        {
          "internalType": "string",
          "name": "description",
          "type": "string"
        },
        {
          "internalType": "string",
          "name": "category",
          "type": "string"
        },
        {
          "internalType": "string",
          "name": "place",
          "type": "string"
        },
        {
          "internalType": "uint256",
          "name": "date",
          "type": "uint256"
        },
        {
          "internalType": "uint256",
          "name": "ticketsSold",
          "type": "uint256"
        },
        {
          "internalType": "bool",
          "name": "isActive",
          "type": "bool"
        }
      ],
      "stateMutability": "view",
      "type": "function"
    },
    {
      "inputs": [],
      "name": "ticketFactory",
      "outputs": [
        {
          "internalType": "contract TicketFactory",
          "name": "",
          "type": "address"
        }
      ],
      "stateMutability": "view",
      "type": "function"
    },
    {
      "inputs": [],
      "name": "totalEvents",
      "outputs": [
        {
          "internalType": "uint256",
          "name": "",
          "type": "uint256"
        }
      ],
      "stateMutability": "view",
      "type": "function"
    },
    {
      "inputs": [
        {
          "internalType": "string",
          "name": "_title",
          "type": "string"
        },
        {
          "internalType": "string",
          "name": "_description",
          "type": "string"
        },
        {
          "internalType": "string",
          "name": "_category",
          "type": "string"
        },
        {
          "internalType": "string",
          "name": "_place",
          "type": "string"
        },
        {
          "internalType": "uint256",
          "name": "_eventDate",
          "type": "uint256"
        }
      ],
      "name": "createEvent",
      "outputs": [],
      "stateMutability": "nonpayable",
      "type": "function"
    },
    {
      "inputs": [],
      "name": "displayEvents",
      "outputs": [
        {
          "components": [
            {
              "internalType": "uint256",
              "name": "eventId",
              "type": "uint256"
            },
            {
              "internalType": "string",
              "name": "title",
              "type": "string"
            },
            {
              "internalType": "string",
              "name": "description",
              "type": "string"
            },
            {
              "internalType": "string",
              "name": "category",
              "type": "string"
            },
            {
              "internalType": "string",
              "name": "place",
              "type": "string"
            },
            {
              "internalType": "uint256",
              "name": "date",
              "type": "uint256"
            },
            {
              "internalType": "uint256",
              "name": "ticketsSold",
              "type": "uint256"
            },
            {
              "internalType": "bool",
              "name": "isActive",
              "type": "bool"
            }
          ],
          "internalType": "struct Events.Event[]",
          "name": "",
          "type": "tuple[]"
        }
      ],
      "stateMutability": "view",
      "type": "function"
    },
    {
      "inputs": [
        {
          "internalType": "uint256",
          "name": "_eventId",
          "type": "uint256"
        }
      ],
      "name": "getEvent",
      "outputs": [
        {
          "components": [
            {
              "internalType": "uint256",
              "name": "eventId",
              "type": "uint256"
            },
            {
              "internalType": "string",
              "name": "title",
              "type": "string"
            },
            {
              "internalType": "string",
              "name": "description",
              "type": "string"
            },
            {
              "internalType": "string",
              "name": "category",
              "type": "string"
            },
            {
              "internalType": "string",
              "name": "place",
              "type": "string"
            },
            {
              "internalType": "uint256",
              "name": "date",
              "type": "uint256"
            },
            {
              "internalType": "uint256",
              "name": "ticketsSold",
              "type": "uint256"
            },
            {
              "internalType": "bool",
              "name": "isActive",
              "type": "bool"
            }
          ],
          "internalType": "struct Events.Event",
          "name": "",
          "type": "tuple"
        }
      ],
      "stateMutability": "view",
      "type": "function"
    },
    {
      "inputs": [],
      "name": "getEventsCount",
      "outputs": [
        {
          "internalType": "uint256",
          "name": "",
          "type": "uint256"
        }
      ],
      "stateMutability": "view",
      "type": "function"
    },
    {
      "inputs": [],
      "name": "getMyEvents",
      "outputs": [
        {
          "components": [
            {
              "internalType": "uint256",
              "name": "eventId",
              "type": "uint256"
            },
            {
              "internalType": "string",
              "name": "title",
              "type": "string"
            },
            {
              "internalType": "string",
              "name": "description",
              "type": "string"
            },
            {
              "internalType": "string",
              "name": "category",
              "type": "string"
            },
            {
              "internalType": "string",
              "name": "place",
              "type": "string"
            },
            {
              "internalType": "uint256",
              "name": "date",
              "type": "uint256"
            },
            {
              "internalType": "uint256",
              "name": "ticketsSold",
              "type": "uint256"
            },
            {
              "internalType": "bool",
              "name": "isActive",
              "type": "bool"
            }
          ],
          "internalType": "struct Events.Event[]",
          "name": "",
          "type": "tuple[]"
        }
      ],
      "stateMutability": "view",
      "type": "function"
    }
  ],
  "bytecode": "0x60806040523480156200001157600080fd5b5060405162001f4138038062001f418339818101604052810190620000379190620000e9565b80600360006101000a81548173ffffffffffffffffffffffffffffffffffffffff021916908373ffffffffffffffffffffffffffffffffffffffff160217905550506200011b565b600080fd5b600073ffffffffffffffffffffffffffffffffffffffff82169050919050565b6000620000b18262000084565b9050919050565b620000c381620000a4565b8114620000cf57600080fd5b50565b600081519050620000e381620000b8565b92915050565b6000602082840312156200010257620001016200007f565b5b60006200011284828501620000d2565b91505092915050565b611e16806200012b6000396000f3fe608060405234801561001057600080fd5b50600436106100935760003560e01c80633548124b116100665780633548124b146101295780636d1884e014610147578063998f6ac014610177578063ba870686146101a7578063bdcf5b8e146101c557610093565b8063068f46ce146100985780630b791430146100b657806317775923146100ed57806330366d5f1461010b575b600080fd5b6100a06101e1565b6040516100ad919061113a565b60405180910390f35b6100d060048036038101906100cb919061119f565b610207565b6040516100e4989796959493929190611286565b60405180910390f35b6100f561047c565b604051610102919061150f565b60405180910390f35b6101136107db565b6040516101209190611531565b60405180910390f35b6101316107e5565b60405161013e919061150f565b60405180910390f35b610161600480360381019061015c919061119f565b610be4565b60405161016e9190611611565b60405180910390f35b610191600480360381019061018c919061119f565b610ed6565b60405161019e9190611531565b60405180910390f35b6101af610efa565b6040516101bc9190611531565b60405180910390f35b6101df60048036038101906101da9190611768565b610f00565b005b600360009054906101000a900473ffffffffffffffffffffffffffffffffffffffff1681565b600060205280600052604060002060009150905080600001549080600101805461023090611882565b80601f016020809104026020016040519081016040528092919081815260200182805461025c90611882565b80156102a95780601f1061027e576101008083540402835291602001916102a9565b820191906000526020600020905b81548152906001019060200180831161028c57829003601f168201915b5050505050908060020180546102be90611882565b80601f01602080910402602001604051908101604052809291908181526020018280546102ea90611882565b80156103375780601f1061030c57610100808354040283529160200191610337565b820191906000526020600020905b81548152906001019060200180831161031a57829003601f168201915b50505050509080600301805461034c90611882565b80601f016020809104026020016040519081016040528092919081815260200182805461037890611882565b80156103c55780601f1061039a576101008083540402835291602001916103c5565b820191906000526020600020905b8154815290600101906020018083116103a857829003601f168201915b5050505050908060040180546103da90611882565b80601f016020809104026020016040519081016040528092919081815260200182805461040690611882565b80156104535780601f1061042857610100808354040283529160200191610453565b820191906000526020600020905b81548152906001019060200180831161043657829003601f168201915b5050505050908060050154908060060154908060070160009054906101000a900460ff16905088565b6060600060025467ffffffffffffffff81111561049c5761049b61163d565b5b6040519080825280602002602001820160405280156104d557816020015b6104c2611074565b8152602001906001900390816104ba5790505b50905060005b6002548110156107d357600080600183815481106104fc576104fb6118b3565b5b90600052602060002001548152602001908152602001600020604051806101000160405290816000820154815260200160018201805461053b90611882565b80601f016020809104026020016040519081016040528092919081815260200182805461056790611882565b80156105b45780601f10610589576101008083540402835291602001916105b4565b820191906000526020600020905b81548152906001019060200180831161059757829003601f168201915b505050505081526020016002820180546105cd90611882565b80601f01602080910402602001604051908101604052809291908181526020018280546105f990611882565b80156106465780601f1061061b57610100808354040283529160200191610646565b820191906000526020600020905b81548152906001019060200180831161062957829003601f168201915b5050505050815260200160038201805461065f90611882565b80601f016020809104026020016040519081016040528092919081815260200182805461068b90611882565b80156106d85780601f106106ad576101008083540402835291602001916106d8565b820191906000526020600020905b8154815290600101906020018083116106bb57829003601f168201915b505050505081526020016004820180546106f190611882565b80601f016020809104026020016040519081016040528092919081815260200182805461071d90611882565b801561076a5780601f1061073f5761010080835404028352916020019161076a565b820191906000526020600020905b81548152906001019060200180831161074d57829003601f168201915b5050505050815260200160058201548152602001600682015481526020016007820160009054906101000a900460ff1615151515815250508282815181106107b5576107b46118b3565b5b602002602001018190525080806107cb90611911565b9150506104db565b508091505090565b6000600254905090565b60606000600360009054906101000a900473ffffffffffffffffffffffffffffffffffffffff1673ffffffffffffffffffffffffffffffffffffffff166322c4ef08336040518263ffffffff1660e01b8152600401610844919061197a565b600060405180830381865afa158015610861573d6000803e3d6000fd5b505050506040513d6000823e3d601f19601f8201168201806040525081019061088a9190611a72565b90506000815167ffffffffffffffff8111156108a9576108a861163d565b5b6040519080825280602002602001820160405280156108e257816020015b6108cf611074565b8152602001906001900390816108c75790505b50905060005b8251811015610bdb57600080848381518110610907576109066118b3565b5b60200260200101518152602001908152602001600020604051806101000160405290816000820154815260200160018201805461094390611882565b80601f016020809104026020016040519081016040528092919081815260200182805461096f90611882565b80156109bc5780601f10610991576101008083540402835291602001916109bc565b820191906000526020600020905b81548152906001019060200180831161099f57829003601f168201915b505050505081526020016002820180546109d590611882565b80601f0160208091040260200160405190810160405280929190818152602001828054610a0190611882565b8015610a4e5780601f10610a2357610100808354040283529160200191610a4e565b820191906000526020600020905b815481529060010190602001808311610a3157829003601f168201915b50505050508152602001600382018054610a6790611882565b80601f0160208091040260200160405190810160405280929190818152602001828054610a9390611882565b8015610ae05780601f10610ab557610100808354040283529160200191610ae0565b820191906000526020600020905b815481529060010190602001808311610ac357829003601f168201915b50505050508152602001600482018054610af990611882565b80601f0160208091040260200160405190810160405280929190818152602001828054610b2590611882565b8015610b725780601f10610b4757610100808354040283529160200191610b72565b820191906000526020600020905b815481529060010190602001808311610b5557829003601f168201915b5050505050815260200160058201548152602001600682015481526020016007820160009054906101000a900460ff161515151581525050828281518110610bbd57610bbc6118b3565b5b60200260200101819052508080610bd390611911565b9150506108e8565b50809250505090565b610bec611074565b6002548210610c30576040517f08c379a0000000000000000000000000000000000000000000000000000000008152600401610c2790611b07565b60405180910390fd5b6000808381526020019081526020016000206040518061010001604052908160008201548152602001600182018054610c6890611882565b80601f0160208091040260200160405190810160405280929190818152602001828054610c9490611882565b8015610ce15780601f10610cb657610100808354040283529160200191610ce1565b820191906000526020600020905b815481529060010190602001808311610cc457829003601f168201915b50505050508152602001600282018054610cfa90611882565b80601f0160208091040260200160405190810160405280929190818152602001828054610d2690611882565b8015610d735780601f10610d4857610100808354040283529160200191610d73565b820191906000526020600020905b815481529060010190602001808311610d5657829003601f168201915b50505050508152602001600382018054610d8c90611882565b80601f0160208091040260200160405190810160405280929190818152602001828054610db890611882565b8015610e055780601f10610dda57610100808354040283529160200191610e05565b820191906000526020600020905b815481529060010190602001808311610de857829003601f168201915b50505050508152602001600482018054610e1e90611882565b80601f0160208091040260200160405190810160405280929190818152602001828054610e4a90611882565b8015610e975780601f10610e6c57610100808354040283529160200191610e97565b820191906000526020600020905b815481529060010190602001808311610e7a57829003601f168201915b5050505050815260200160058201548152602001600682015481526020016007820160009054906101000a900460ff1615151515815250509050919050565b60018181548110610ee657600080fd5b906000526020600020016000915090505481565b60025481565b600060025490506040518061010001604052808281526020018781526020018681526020018581526020018481526020018381526020016000815260200160011515815250600080838152602001908152602001600020600082015181600001556020820151816001019081610f769190611cc9565b506040820151816002019081610f8c9190611cc9565b506060820151816003019081610fa29190611cc9565b506080820151816004019081610fb89190611cc9565b5060a0820151816005015560c0820151816006015560e08201518160070160006101000a81548160ff02191690831515021790555090505060018190806001815401808255809150506001900390600052602060002001600090919091909150556002600081548092919061102c90611911565b91905055507fa66af77df260a5c03634cc608c4576078655b434f4b7e128a6e3e7ec7334197481878560405161106493929190611d9b565b60405180910390a1505050505050565b604051806101000160405280600081526020016060815260200160608152602001606081526020016060815260200160008152602001600081526020016000151581525090565b600073ffffffffffffffffffffffffffffffffffffffff82169050919050565b6000819050919050565b60006111006110fb6110f6846110bb565b6110db565b6110bb565b9050919050565b6000611112826110e5565b9050919050565b600061112482611107565b9050919050565b61113481611119565b82525050565b600060208201905061114f600083018461112b565b92915050565b6000604051905090565b600080fd5b600080fd5b6000819050919050565b61117c81611169565b811461118757600080fd5b50565b60008135905061119981611173565b92915050565b6000602082840312156111b5576111b461115f565b5b60006111c38482850161118a565b91505092915050565b6111d581611169565b82525050565b600081519050919050565b600082825260208201905092915050565b60005b838110156112155780820151818401526020810190506111fa565b60008484015250505050565b6000601f19601f8301169050919050565b600061123d826111db565b61124781856111e6565b93506112578185602086016111f7565b61126081611221565b840191505092915050565b60008115159050919050565b6112808161126b565b82525050565b60006101008201905061129c600083018b6111cc565b81810360208301526112ae818a611232565b905081810360408301526112c28189611232565b905081810360608301526112d68188611232565b905081810360808301526112ea8187611232565b90506112f960a08301866111cc565b61130660c08301856111cc565b61131360e0830184611277565b9998505050505050505050565b600081519050919050565b600082825260208201905092915050565b6000819050602082019050919050565b61135581611169565b82525050565b600082825260208201905092915050565b6000611377826111db565b611381818561135b565b93506113918185602086016111f7565b61139a81611221565b840191505092915050565b6113ae8161126b565b82525050565b6000610100830160008301516113cd600086018261134c565b50602083015184820360208601526113e5828261136c565b915050604083015184820360408601526113ff828261136c565b91505060608301518482036060860152611419828261136c565b91505060808301518482036080860152611433828261136c565b91505060a083015161144860a086018261134c565b5060c083015161145b60c086018261134c565b5060e083015161146e60e08601826113a5565b508091505092915050565b600061148583836113b4565b905092915050565b6000602082019050919050565b60006114a582611320565b6114af818561132b565b9350836020820285016114c18561133c565b8060005b858110156114fd57848403895281516114de8582611479565b94506114e98361148d565b925060208a019950506001810190506114c5565b50829750879550505050505092915050565b60006020820190508181036000830152611529818461149a565b905092915050565b600060208201905061154660008301846111cc565b92915050565b600061010083016000830151611565600086018261134c565b506020830151848203602086015261157d828261136c565b91505060408301518482036040860152611597828261136c565b915050606083015184820360608601526115b1828261136c565b915050608083015184820360808601526115cb828261136c565b91505060a08301516115e060a086018261134c565b5060c08301516115f360c086018261134c565b5060e083015161160660e08601826113a5565b508091505092915050565b6000602082019050818103600083015261162b818461154c565b905092915050565b600080fd5b600080fd5b7f4e487b7100000000000000000000000000000000000000000000000000000000600052604160045260246000fd5b61167582611221565b810181811067ffffffffffffffff821117156116945761169361163d565b5b80604052505050565b60006116a7611155565b90506116b3828261166c565b919050565b600067ffffffffffffffff8211156116d3576116d261163d565b5b6116dc82611221565b9050602081019050919050565b82818337600083830152505050565b600061170b611706846116b8565b61169d565b90508281526020810184848401111561172757611726611638565b5b6117328482856116e9565b509392505050565b600082601f83011261174f5761174e611633565b5b813561175f8482602086016116f8565b91505092915050565b600080600080600060a086880312156117845761178361115f565b5b600086013567ffffffffffffffff8111156117a2576117a1611164565b5b6117ae8882890161173a565b955050602086013567ffffffffffffffff8111156117cf576117ce611164565b5b6117db8882890161173a565b945050604086013567ffffffffffffffff8111156117fc576117fb611164565b5b6118088882890161173a565b935050606086013567ffffffffffffffff81111561182957611828611164565b5b6118358882890161173a565b92505060806118468882890161118a565b9150509295509295909350565b7f4e487b7100000000000000000000000000000000000000000000000000000000600052602260045260246000fd5b6000600282049050600182168061189a57607f821691505b6020821081036118ad576118ac611853565b5b50919050565b7f4e487b7100000000000000000000000000000000000000000000000000000000600052603260045260246000fd5b7f4e487b7100000000000000000000000000000000000000000000000000000000600052601160045260246000fd5b600061191c82611169565b91507fffffffffffffffffffffffffffffffffffffffffffffffffffffffffffffffff820361194e5761194d6118e2565b5b600182019050919050565b6000611964826110bb565b9050919050565b61197481611959565b82525050565b600060208201905061198f600083018461196b565b92915050565b600067ffffffffffffffff8211156119b0576119af61163d565b5b602082029050602081019050919050565b600080fd5b6000815190506119d581611173565b92915050565b60006119ee6119e984611995565b61169d565b90508083825260208201905060208402830185811115611a1157611a106119c1565b5b835b81811015611a3a5780611a2688826119c6565b845260208401935050602081019050611a13565b5050509392505050565b600082601f830112611a5957611a58611633565b5b8151611a698482602086016119db565b91505092915050565b600060208284031215611a8857611a8761115f565b5b600082015167ffffffffffffffff811115611aa657611aa5611164565b5b611ab284828501611a44565b91505092915050565b7f4576656e7420646f6573206e6f74206578697374000000000000000000000000600082015250565b6000611af16014836111e6565b9150611afc82611abb565b602082019050919050565b60006020820190508181036000830152611b2081611ae4565b9050919050565b60008190508160005260206000209050919050565b60006020601f8301049050919050565b600082821b905092915050565b600060088302611b897fffffffffffffffffffffffffffffffffffffffffffffffffffffffffffffffff82611b4c565b611b938683611b4c565b95508019841693508086168417925050509392505050565b6000611bc6611bc1611bbc84611169565b6110db565b611169565b9050919050565b6000819050919050565b611be083611bab565b611bf4611bec82611bcd565b848454611b59565b825550505050565b600090565b611c09611bfc565b611c14818484611bd7565b505050565b5b81811015611c3857611c2d600082611c01565b600181019050611c1a565b5050565b601f821115611c7d57611c4e81611b27565b611c5784611b3c565b81016020851015611c66578190505b611c7a611c7285611b3c565b830182611c19565b50505b505050565b600082821c905092915050565b6000611ca060001984600802611c82565b1980831691505092915050565b6000611cb98383611c8f565b9150826002028217905092915050565b611cd2826111db565b67ffffffffffffffff811115611ceb57611cea61163d565b5b611cf58254611882565b611d00828285611c3c565b600060209050601f831160018114611d335760008415611d21578287015190505b611d2b8582611cad565b865550611d93565b601f198416611d4186611b27565b60005b82811015611d6957848901518255600182019150602085019450602081019050611d44565b86831015611d865784890151611d82601f891682611c8f565b8355505b6001600288020188555050505b505050505050565b6000606082019050611db060008301866111cc565b8181036020830152611dc28185611232565b90508181036040830152611dd68184611232565b905094935050505056fea2646970667358221220448690de21134efcade3249a99798793bd683d0b1cd14d6117cb6a4bc28069b864736f6c63430008110033",
  "immutableReferences": {},
  "source": "// SPDX-License-Identifier: MIT\npragma solidity ^0.8.17;\n\nimport \"./TicketFactory.sol\";\n\ncontract Events {\n    // Define a struct to hold event details\n    struct Event {\n        uint256 eventId;\n        string title;\n        string description;\n        string category;\n        string place;\n        uint256 date; // Unix timestamp\n        uint256 ticketsSold;\n        bool isActive;\n    }\n\n    // Mapping from eventId to event details\n    mapping(uint256 => Event) public events;\n\n    // List of event IDs\n    uint256[] public eventIds;\n\n    // Counter for total events created\n    uint256 public totalEvents;\n\n    // TicketFactory reference\n    TicketFactory public ticketFactory;\n\n    // Event emitted when a new event is created\n    event EventCreated(uint256 eventId, string title, string place);\n\n    // Constructor to initialize TicketFactory address\n    constructor(address _ticketFactoryAddress) {\n        ticketFactory = TicketFactory(_ticketFactoryAddress);\n    }\n\n    // Create a new event\n    function createEvent(\n        string memory _title,\n        string memory _description,\n        string memory _category,\n        string memory _place,\n        uint256 _eventDate\n    ) external {\n        uint256 eventId = totalEvents;\n\n        events[eventId] = Event({\n            eventId: eventId,\n            title: _title,\n            description: _description,\n            category: _category,\n            place: _place,\n            date: _eventDate,\n            ticketsSold: 0,\n            isActive: true\n        });\n\n        eventIds.push(eventId);\n        totalEvents++;\n\n        emit EventCreated(eventId, _title, _place);\n    }\n\n    // Return all created events\n    function displayEvents() external view returns (Event[] memory) {\n        Event[] memory allEvents = new Event[](totalEvents);\n        for (uint256 i = 0; i < totalEvents; i++) {\n            allEvents[i] = events[eventIds[i]];\n        }\n        return allEvents;\n    }\n\n    // Get a single event by ID\n    function getEvent(uint256 _eventId) external view returns (Event memory) {\n        require(_eventId < totalEvents, \"Event does not exist\");\n        return events[_eventId];\n    }\n\n    // Get total number of events\n    function getEventsCount() public view returns (uint256) {\n        return totalEvents;\n    }\n\n    //  Get events where msg.sender owns at least one ticket\n    function getMyEvents() external view returns (Event[] memory) {\n        uint256[] memory owned = ticketFactory.getOwnedEventIds(msg.sender);\n        Event[] memory result = new Event[](owned.length);\n\n        for (uint256 i = 0; i < owned.length; i++) {\n            result[i] = events[owned[i]];\n        }\n\n        return result;\n    }\n}\n",
  "sourcePath": "C:\\Users\\dylan\\Downloads\\blockchain_project-main\\blockchain_project-main\\contracts\\Events.sol",
  "compiler": {
    "name": "solc",
    "version": "0.8.17+commit.8df45f5f.Emscripten.clang"
  },
  "schemaVersion": "3.4.16",
  "updatedAt": "2025-07-08T04:50:58.563Z",
  "devdoc": {
    "kind": "dev",
    "methods": {},
    "version": 1
  },
  "userdoc": {
    "kind": "user",
    "methods": {},
    "version": 1
  }
}