{
  "contractName": "EventTicketNFT",
  "abi": [
    {
      "inputs": [
        {
          "internalType": "string",
          "name": "name",
          "type": "string"
        },
        {
          "internalType": "string",
          "name": "symbol",
          "type": "string"
        }
      ],
      "stateMutability": "nonpayable",
      "type": "constructor"
    },
    {
      "anonymous": false,
      "inputs": [
        {
          "indexed": true,
          "internalType": "address",
          "name": "owner",
          "type": "address"
        },
        {
          "indexed": true,
          "internalType": "address",
          "name": "approved",
          "type": "address"
        },
        {
          "indexed": true,
          "internalType": "uint256",
          "name": "tokenId",
          "type": "uint256"
        }
      ],
      "name": "Approval",
      "type": "event"
    },
    {
      "anonymous": false,
      "inputs": [
        {
          "indexed": true,
          "internalType": "address",
          "name": "owner",
          "type": "address"
        },
        {
          "indexed": true,
          "internalType": "address",
          "name": "operator",
          "type": "address"
        },
        {
          "indexed": false,
          "internalType": "bool",
          "name": "approved",
          "type": "bool"
        }
      ],
      "name": "ApprovalForAll",
      "type": "event"
    },
    {
      "anonymous": false,
      "inputs": [
        {
          "indexed": false,
          "internalType": "uint256",
          "name": "_fromTokenId",
          "type": "uint256"
        },
        {
          "indexed": false,
          "internalType": "uint256",
          "name": "_toTokenId",
          "type": "uint256"
        }
      ],
      "name": "BatchMetadataUpdate",
      "type": "event"
    },
    {
      "anonymous": false,
      "inputs": [
        {
          "indexed": false,
          "internalType": "uint256",
          "name": "_tokenId",
          "type": "uint256"
        }
      ],
      "name": "MetadataUpdate",
      "type": "event"
    },
    {
      "anonymous": false,
      "inputs": [
        {
          "indexed": true,
          "internalType": "address",
          "name": "from",
          "type": "address"
        },
        {
          "indexed": true,
          "internalType": "address",
          "name": "to",
          "type": "address"
        },
        {
          "indexed": true,
          "internalType": "uint256",
          "name": "tokenId",
          "type": "uint256"
        }
      ],
      "name": "Transfer",
      "type": "event"
    },
    {
      "inputs": [
        {
          "internalType": "address",
          "name": "to",
          "type": "address"
        },
        {
          "internalType": "uint256",
          "name": "tokenId",
          "type": "uint256"
        }
      ],
      "name": "approve",
      "outputs": [],
      "stateMutability": "nonpayable",
      "type": "function"
    },
    {
      "inputs": [
        {
          "internalType": "address",
          "name": "owner",
          "type": "address"
        }
      ],
      "name": "balanceOf",
      "outputs": [
        {
          "internalType": "uint256",
          "name": "",
          "type": "uint256"
        }
      ],
      "stateMutability": "view",
      "type": "function",
      "constant": true
    },
    {
      "inputs": [
        {
          "internalType": "uint256",
          "name": "tokenId",
          "type": "uint256"
        }
      ],
      "name": "getApproved",
      "outputs": [
        {
          "internalType": "address",
          "name": "",
          "type": "address"
        }
      ],
      "stateMutability": "view",
      "type": "function",
      "constant": true
    },
    {
      "inputs": [
        {
          "internalType": "address",
          "name": "owner",
          "type": "address"
        },
        {
          "internalType": "address",
          "name": "operator",
          "type": "address"
        }
      ],
      "name": "isApprovedForAll",
      "outputs": [
        {
          "internalType": "bool",
          "name": "",
          "type": "bool"
        }
      ],
      "stateMutability": "view",
      "type": "function",
      "constant": true
    },
    {
      "inputs": [],
      "name": "name",
      "outputs": [
        {
          "internalType": "string",
          "name": "",
          "type": "string"
        }
      ],
      "stateMutability": "view",
      "type": "function",
      "constant": true
    },
    {
      "inputs": [],
      "name": "nextTokenId",
      "outputs": [
        {
          "internalType": "uint256",
          "name": "",
          "type": "uint256"
        }
      ],
      "stateMutability": "view",
      "type": "function",
      "constant": true
    },
    {
      "inputs": [
        {
          "internalType": "uint256",
          "name": "tokenId",
          "type": "uint256"
        }
      ],
      "name": "ownerOf",
      "outputs": [
        {
          "internalType": "address",
          "name": "",
          "type": "address"
        }
      ],
      "stateMutability": "view",
      "type": "function",
      "constant": true
    },
    {
      "inputs": [
        {
          "internalType": "address",
          "name": "from",
          "type": "address"
        },
        {
          "internalType": "address",
          "name": "to",
          "type": "address"
        },
        {
          "internalType": "uint256",
          "name": "tokenId",
          "type": "uint256"
        }
      ],
      "name": "safeTransferFrom",
      "outputs": [],
      "stateMutability": "nonpayable",
      "type": "function"
    },
    {
      "inputs": [
        {
          "internalType": "address",
          "name": "from",
          "type": "address"
        },
        {
          "internalType": "address",
          "name": "to",
          "type": "address"
        },
        {
          "internalType": "uint256",
          "name": "tokenId",
          "type": "uint256"
        },
        {
          "internalType": "bytes",
          "name": "data",
          "type": "bytes"
        }
      ],
      "name": "safeTransferFrom",
      "outputs": [],
      "stateMutability": "nonpayable",
      "type": "function"
    },
    {
      "inputs": [
        {
          "internalType": "address",
          "name": "operator",
          "type": "address"
        },
        {
          "internalType": "bool",
          "name": "approved",
          "type": "bool"
        }
      ],
      "name": "setApprovalForAll",
      "outputs": [],
      "stateMutability": "nonpayable",
      "type": "function"
    },
    {
      "inputs": [
        {
          "internalType": "bytes4",
          "name": "interfaceId",
          "type": "bytes4"
        }
      ],
      "name": "supportsInterface",
      "outputs": [
        {
          "internalType": "bool",
          "name": "",
          "type": "bool"
        }
      ],
      "stateMutability": "view",
      "type": "function",
      "constant": true
    },
    {
      "inputs": [],
      "name": "symbol",
      "outputs": [
        {
          "internalType": "string",
          "name": "",
          "type": "string"
        }
      ],
      "stateMutability": "view",
      "type": "function",
      "constant": true
    },
    {
      "inputs": [
        {
          "internalType": "uint256",
          "name": "tokenId",
          "type": "uint256"
        }
      ],
      "name": "tokenURI",
      "outputs": [
        {
          "internalType": "string",
          "name": "",
          "type": "string"
        }
      ],
      "stateMutability": "view",
      "type": "function",
      "constant": true
    },
    {
      "inputs": [
        {
          "internalType": "address",
          "name": "from",
          "type": "address"
        },
        {
          "internalType": "address",
          "name": "to",
          "type": "address"
        },
        {
          "internalType": "uint256",
          "name": "tokenId",
          "type": "uint256"
        }
      ],
      "name": "transferFrom",
      "outputs": [],
      "stateMutability": "nonpayable",
      "type": "function"
    },
    {
      "inputs": [
        {
          "internalType": "address",
          "name": "to",
          "type": "address"
        },
        {
          "internalType": "string",
          "name": "tokenURI",
          "type": "string"
        }
      ],
      "name": "mintTicket",
      "outputs": [],
      "stateMutability": "nonpayable",
      "type": "function"
    }
  ],
  "bytecode": "0x608060405260016007553480156200001657600080fd5b506040516200318d3803806200318d83398181016040528101906200003c9190620001ff565b818181600090816200004f9190620004cf565b508060019081620000619190620004cf565b5050505050620005b6565b6000604051905090565b600080fd5b600080fd5b600080fd5b600080fd5b6000601f19601f8301169050919050565b7f4e487b7100000000000000000000000000000000000000000000000000000000600052604160045260246000fd5b620000d5826200008a565b810181811067ffffffffffffffff82111715620000f757620000f66200009b565b5b80604052505050565b60006200010c6200006c565b90506200011a8282620000ca565b919050565b600067ffffffffffffffff8211156200013d576200013c6200009b565b5b62000148826200008a565b9050602081019050919050565b60005b838110156200017557808201518184015260208101905062000158565b60008484015250505050565b60006200019862000192846200011f565b62000100565b905082815260208101848484011115620001b757620001b662000085565b5b620001c484828562000155565b509392505050565b600082601f830112620001e457620001e362000080565b5b8151620001f684826020860162000181565b91505092915050565b6000806040838503121562000219576200021862000076565b5b600083015167ffffffffffffffff8111156200023a57620002396200007b565b5b6200024885828601620001cc565b925050602083015167ffffffffffffffff8111156200026c576200026b6200007b565b5b6200027a85828601620001cc565b9150509250929050565b600081519050919050565b7f4e487b7100000000000000000000000000000000000000000000000000000000600052602260045260246000fd5b60006002820490506001821680620002d757607f821691505b602082108103620002ed57620002ec6200028f565b5b50919050565b60008190508160005260206000209050919050565b60006020601f8301049050919050565b600082821b905092915050565b600060088302620003577fffffffffffffffffffffffffffffffffffffffffffffffffffffffffffffffff8262000318565b62000363868362000318565b95508019841693508086168417925050509392505050565b6000819050919050565b6000819050919050565b6000620003b0620003aa620003a4846200037b565b62000385565b6200037b565b9050919050565b6000819050919050565b620003cc836200038f565b620003e4620003db82620003b7565b84845462000325565b825550505050565b600090565b620003fb620003ec565b62000408818484620003c1565b505050565b5b81811015620004305762000424600082620003f1565b6001810190506200040e565b5050565b601f8211156200047f576200044981620002f3565b620004548462000308565b8101602085101562000464578190505b6200047c620004738562000308565b8301826200040d565b50505b505050565b600082821c905092915050565b6000620004a46000198460080262000484565b1980831691505092915050565b6000620004bf838362000491565b9150826002028217905092915050565b620004da8262000284565b67ffffffffffffffff811115620004f657620004f56200009b565b5b620005028254620002be565b6200050f82828562000434565b600060209050601f83116001811462000547576000841562000532578287015190505b6200053e8582620004b1565b865550620005ae565b601f1984166200055786620002f3565b60005b8281101562000581578489015182556001820191506020850194506020810190506200055a565b86831015620005a157848901516200059d601f89168262000491565b8355505b6001600288020188555050505b505050505050565b612bc780620005c66000396000f3fe608060405234801561001057600080fd5b50600436106100f55760003560e01c80636352211e11610097578063a22cb46511610066578063a22cb46514610284578063b88d4fde146102a0578063c87b56dd146102bc578063e985e9c5146102ec576100f5565b80636352211e146101e857806370a082311461021857806375794a3c1461024857806395d89b4114610266576100f5565b8063095ea7b3116100d3578063095ea7b31461017857806323b872dd1461019457806342842e0e146101b05780635388842c146101cc576100f5565b806301ffc9a7146100fa57806306fdde031461012a578063081812fc14610148575b600080fd5b610114600480360381019061010f9190611a3f565b61031c565b6040516101219190611a87565b60405180910390f35b61013261037d565b60405161013f9190611b32565b60405180910390f35b610162600480360381019061015d9190611b8a565b61040f565b60405161016f9190611bf8565b60405180910390f35b610192600480360381019061018d9190611c3f565b610455565b005b6101ae60048036038101906101a99190611c7f565b61056c565b005b6101ca60048036038101906101c59190611c7f565b6105cc565b005b6101e660048036038101906101e19190611e07565b6105ec565b005b61020260048036038101906101fd9190611b8a565b610624565b60405161020f9190611bf8565b60405180910390f35b610232600480360381019061022d9190611e63565b6106aa565b60405161023f9190611e9f565b60405180910390f35b610250610761565b60405161025d9190611e9f565b60405180910390f35b61026e610767565b60405161027b9190611b32565b60405180910390f35b61029e60048036038101906102999190611ee6565b6107f9565b005b6102ba60048036038101906102b59190611fc7565b61080f565b005b6102d660048036038101906102d19190611b8a565b610871565b6040516102e39190611b32565b60405180910390f35b6103066004803603810190610301919061204a565b610983565b6040516103139190611a87565b60405180910390f35b6000634906490660e01b7bffffffffffffffffffffffffffffffffffffffffffffffffffffffff1916827bffffffffffffffffffffffffffffffffffffffffffffffffffffffff19161480610376575061037582610a17565b5b9050919050565b60606000805461038c906120b9565b80601f01602080910402602001604051908101604052809291908181526020018280546103b8906120b9565b80156104055780601f106103da57610100808354040283529160200191610405565b820191906000526020600020905b8154815290600101906020018083116103e857829003601f168201915b5050505050905090565b600061041a82610af9565b6004600083815260200190815260200160002060009054906101000a900473ffffffffffffffffffffffffffffffffffffffff169050919050565b600061046082610624565b90508073ffffffffffffffffffffffffffffffffffffffff168373ffffffffffffffffffffffffffffffffffffffff16036104d0576040517f08c379a00000000000000000000000000000000000000000000000000000000081526004016104c79061215c565b60405180910390fd5b8073ffffffffffffffffffffffffffffffffffffffff166104ef610b44565b73ffffffffffffffffffffffffffffffffffffffff16148061051e575061051d81610518610b44565b610983565b5b61055d576040517f08c379a0000000000000000000000000000000000000000000000000000000008152600401610554906121ee565b60405180910390fd5b6105678383610b4c565b505050565b61057d610577610b44565b82610c05565b6105bc576040517f08c379a00000000000000000000000000000000000000000000000000000000081526004016105b390612280565b60405180910390fd5b6105c7838383610c9a565b505050565b6105e78383836040518060200160405280600081525061080f565b505050565b600060075490506105fd8382610f93565b6106078183610fb1565b6007600081548092919061061a906122cf565b9190505550505050565b60008061063083611055565b9050600073ffffffffffffffffffffffffffffffffffffffff168173ffffffffffffffffffffffffffffffffffffffff16036106a1576040517f08c379a000000000000000000000000000000000000000000000000000000000815260040161069890612363565b60405180910390fd5b80915050919050565b60008073ffffffffffffffffffffffffffffffffffffffff168273ffffffffffffffffffffffffffffffffffffffff160361071a576040517f08c379a0000000000000000000000000000000000000000000000000000000008152600401610711906123f5565b60405180910390fd5b600360008373ffffffffffffffffffffffffffffffffffffffff1673ffffffffffffffffffffffffffffffffffffffff168152602001908152602001600020549050919050565b60075481565b606060018054610776906120b9565b80601f01602080910402602001604051908101604052809291908181526020018280546107a2906120b9565b80156107ef5780601f106107c4576101008083540402835291602001916107ef565b820191906000526020600020905b8154815290600101906020018083116107d257829003601f168201915b5050505050905090565b61080b610804610b44565b8383611092565b5050565b61082061081a610b44565b83610c05565b61085f576040517f08c379a000000000000000000000000000000000000000000000000000000000815260040161085690612280565b60405180910390fd5b61086b848484846111fe565b50505050565b606061087c82610af9565b600060066000848152602001908152602001600020805461089c906120b9565b80601f01602080910402602001604051908101604052809291908181526020018280546108c8906120b9565b80156109155780601f106108ea57610100808354040283529160200191610915565b820191906000526020600020905b8154815290600101906020018083116108f857829003601f168201915b50505050509050600061092661125a565b9050600081510361093b57819250505061097e565b600082511115610970578082604051602001610958929190612451565b6040516020818303038152906040529250505061097e565b61097984611271565b925050505b919050565b6000600560008473ffffffffffffffffffffffffffffffffffffffff1673ffffffffffffffffffffffffffffffffffffffff16815260200190815260200160002060008373ffffffffffffffffffffffffffffffffffffffff1673ffffffffffffffffffffffffffffffffffffffff16815260200190815260200160002060009054906101000a900460ff16905092915050565b60007f80ac58cd000000000000000000000000000000000000000000000000000000007bffffffffffffffffffffffffffffffffffffffffffffffffffffffff1916827bffffffffffffffffffffffffffffffffffffffffffffffffffffffff19161480610ae257507f5b5e139f000000000000000000000000000000000000000000000000000000007bffffffffffffffffffffffffffffffffffffffffffffffffffffffff1916827bffffffffffffffffffffffffffffffffffffffffffffffffffffffff1916145b80610af25750610af1826112d9565b5b9050919050565b610b0281611343565b610b41576040517f08c379a0000000000000000000000000000000000000000000000000000000008152600401610b3890612363565b60405180910390fd5b50565b600033905090565b816004600083815260200190815260200160002060006101000a81548173ffffffffffffffffffffffffffffffffffffffff021916908373ffffffffffffffffffffffffffffffffffffffff160217905550808273ffffffffffffffffffffffffffffffffffffffff16610bbf83610624565b73ffffffffffffffffffffffffffffffffffffffff167f8c5be1e5ebec7d5bd14f71427d1e84f3dd0314c0f7b2291e5b200ac8c7c3b92560405160405180910390a45050565b600080610c1183610624565b90508073ffffffffffffffffffffffffffffffffffffffff168473ffffffffffffffffffffffffffffffffffffffff161480610c535750610c528185610983565b5b80610c9157508373ffffffffffffffffffffffffffffffffffffffff16610c798461040f565b73ffffffffffffffffffffffffffffffffffffffff16145b91505092915050565b8273ffffffffffffffffffffffffffffffffffffffff16610cba82610624565b73ffffffffffffffffffffffffffffffffffffffff1614610d10576040517f08c379a0000000000000000000000000000000000000000000000000000000008152600401610d07906124e7565b60405180910390fd5b600073ffffffffffffffffffffffffffffffffffffffff168273ffffffffffffffffffffffffffffffffffffffff1603610d7f576040517f08c379a0000000000000000000000000000000000000000000000000000000008152600401610d7690612579565b60405180910390fd5b610d8c8383836001611384565b8273ffffffffffffffffffffffffffffffffffffffff16610dac82610624565b73ffffffffffffffffffffffffffffffffffffffff1614610e02576040517f08c379a0000000000000000000000000000000000000000000000000000000008152600401610df9906124e7565b60405180910390fd5b6004600082815260200190815260200160002060006101000a81549073ffffffffffffffffffffffffffffffffffffffff02191690556001600360008573ffffffffffffffffffffffffffffffffffffffff1673ffffffffffffffffffffffffffffffffffffffff168152602001908152602001600020600082825403925050819055506001600360008473ffffffffffffffffffffffffffffffffffffffff1673ffffffffffffffffffffffffffffffffffffffff16815260200190815260200160002060008282540192505081905550816002600083815260200190815260200160002060006101000a81548173ffffffffffffffffffffffffffffffffffffffff021916908373ffffffffffffffffffffffffffffffffffffffff160217905550808273ffffffffffffffffffffffffffffffffffffffff168473ffffffffffffffffffffffffffffffffffffffff167fddf252ad1be2c89b69c2b068fc378daa952ba7f163c4a11628f55a4df523b3ef60405160405180910390a4610f8e838383600161138a565b505050565b610fad828260405180602001604052806000815250611390565b5050565b610fba82611343565b610ff9576040517f08c379a0000000000000000000000000000000000000000000000000000000008152600401610ff09061260b565b60405180910390fd5b8060066000848152602001908152602001600020908161101991906127d7565b507ff8e1a15aba9398e019f0b49df1a4fde98ee17ae345cb5f6b5e2c27f5033e8ce7826040516110499190611e9f565b60405180910390a15050565b60006002600083815260200190815260200160002060009054906101000a900473ffffffffffffffffffffffffffffffffffffffff169050919050565b8173ffffffffffffffffffffffffffffffffffffffff168373ffffffffffffffffffffffffffffffffffffffff1603611100576040517f08c379a00000000000000000000000000000000000000000000000000000000081526004016110f7906128f5565b60405180910390fd5b80600560008573ffffffffffffffffffffffffffffffffffffffff1673ffffffffffffffffffffffffffffffffffffffff16815260200190815260200160002060008473ffffffffffffffffffffffffffffffffffffffff1673ffffffffffffffffffffffffffffffffffffffff16815260200190815260200160002060006101000a81548160ff0219169083151502179055508173ffffffffffffffffffffffffffffffffffffffff168373ffffffffffffffffffffffffffffffffffffffff167f17307eab39ab6107e8899845ad3d59bd9653f200f220920489ca2b5937696c31836040516111f19190611a87565b60405180910390a3505050565b611209848484610c9a565b611215848484846113eb565b611254576040517f08c379a000000000000000000000000000000000000000000000000000000000815260040161124b90612987565b60405180910390fd5b50505050565b606060405180602001604052806000815250905090565b606061127c82610af9565b600061128661125a565b905060008151116112a657604051806020016040528060008152506112d1565b806112b084611572565b6040516020016112c1929190612451565b6040516020818303038152906040525b915050919050565b60007f01ffc9a7000000000000000000000000000000000000000000000000000000007bffffffffffffffffffffffffffffffffffffffffffffffffffffffff1916827bffffffffffffffffffffffffffffffffffffffffffffffffffffffff1916149050919050565b60008073ffffffffffffffffffffffffffffffffffffffff1661136583611055565b73ffffffffffffffffffffffffffffffffffffffff1614159050919050565b50505050565b50505050565b61139a8383611640565b6113a760008484846113eb565b6113e6576040517f08c379a00000000000000000000000000000000000000000000000000000000081526004016113dd90612987565b60405180910390fd5b505050565b600061140c8473ffffffffffffffffffffffffffffffffffffffff1661185d565b15611565578373ffffffffffffffffffffffffffffffffffffffff1663150b7a02611435610b44565b8786866040518563ffffffff1660e01b815260040161145794939291906129fc565b6020604051808303816000875af192505050801561149357506040513d601f19601f820116820180604052508101906114909190612a5d565b60015b611515573d80600081146114c3576040519150601f19603f3d011682016040523d82523d6000602084013e6114c8565b606091505b50600081510361150d576040517f08c379a000000000000000000000000000000000000000000000000000000000815260040161150490612987565b60405180910390fd5b805181602001fd5b63150b7a0260e01b7bffffffffffffffffffffffffffffffffffffffffffffffffffffffff1916817bffffffffffffffffffffffffffffffffffffffffffffffffffffffff19161491505061156a565b600190505b949350505050565b60606000600161158184611880565b01905060008167ffffffffffffffff8111156115a05761159f611cdc565b5b6040519080825280601f01601f1916602001820160405280156115d25781602001600182028036833780820191505090505b509050600082602001820190505b600115611635578080600190039150507f3031323334353637383961626364656600000000000000000000000000000000600a86061a8153600a858161162957611628612a8a565b5b049450600085036115e0575b819350505050919050565b600073ffffffffffffffffffffffffffffffffffffffff168273ffffffffffffffffffffffffffffffffffffffff16036116af576040517f08c379a00000000000000000000000000000000000000000000000000000000081526004016116a690612b05565b60405180910390fd5b6116b881611343565b156116f8576040517f08c379a00000000000000000000000000000000000000000000000000000000081526004016116ef90612b71565b60405180910390fd5b611706600083836001611384565b61170f81611343565b1561174f576040517f08c379a000000000000000000000000000000000000000000000000000000000815260040161174690612b71565b60405180910390fd5b6001600360008473ffffffffffffffffffffffffffffffffffffffff1673ffffffffffffffffffffffffffffffffffffffff16815260200190815260200160002060008282540192505081905550816002600083815260200190815260200160002060006101000a81548173ffffffffffffffffffffffffffffffffffffffff021916908373ffffffffffffffffffffffffffffffffffffffff160217905550808273ffffffffffffffffffffffffffffffffffffffff16600073ffffffffffffffffffffffffffffffffffffffff167fddf252ad1be2c89b69c2b068fc378daa952ba7f163c4a11628f55a4df523b3ef60405160405180910390a461185960008383600161138a565b5050565b6000808273ffffffffffffffffffffffffffffffffffffffff163b119050919050565b600080600090507a184f03e93ff9f4daa797ed6e38ed64bf6a1f01000000000000000083106118de577a184f03e93ff9f4daa797ed6e38ed64bf6a1f01000000000000000083816118d4576118d3612a8a565b5b0492506040810190505b6d04ee2d6d415b85acef8100000000831061191b576d04ee2d6d415b85acef8100000000838161191157611910612a8a565b5b0492506020810190505b662386f26fc10000831061194a57662386f26fc1000083816119405761193f612a8a565b5b0492506010810190505b6305f5e1008310611973576305f5e100838161196957611968612a8a565b5b0492506008810190505b612710831061199857612710838161198e5761198d612a8a565b5b0492506004810190505b606483106119bb57606483816119b1576119b0612a8a565b5b0492506002810190505b600a83106119ca576001810190505b80915050919050565b6000604051905090565b600080fd5b600080fd5b60007fffffffff0000000000000000000000000000000000000000000000000000000082169050919050565b611a1c816119e7565b8114611a2757600080fd5b50565b600081359050611a3981611a13565b92915050565b600060208284031215611a5557611a546119dd565b5b6000611a6384828501611a2a565b91505092915050565b60008115159050919050565b611a8181611a6c565b82525050565b6000602082019050611a9c6000830184611a78565b92915050565b600081519050919050565b600082825260208201905092915050565b60005b83811015611adc578082015181840152602081019050611ac1565b60008484015250505050565b6000601f19601f8301169050919050565b6000611b0482611aa2565b611b0e8185611aad565b9350611b1e818560208601611abe565b611b2781611ae8565b840191505092915050565b60006020820190508181036000830152611b4c8184611af9565b905092915050565b6000819050919050565b611b6781611b54565b8114611b7257600080fd5b50565b600081359050611b8481611b5e565b92915050565b600060208284031215611ba057611b9f6119dd565b5b6000611bae84828501611b75565b91505092915050565b600073ffffffffffffffffffffffffffffffffffffffff82169050919050565b6000611be282611bb7565b9050919050565b611bf281611bd7565b82525050565b6000602082019050611c0d6000830184611be9565b92915050565b611c1c81611bd7565b8114611c2757600080fd5b50565b600081359050611c3981611c13565b92915050565b60008060408385031215611c5657611c556119dd565b5b6000611c6485828601611c2a565b9250506020611c7585828601611b75565b9150509250929050565b600080600060608486031215611c9857611c976119dd565b5b6000611ca686828701611c2a565b9350506020611cb786828701611c2a565b9250506040611cc886828701611b75565b9150509250925092565b600080fd5b600080fd5b7f4e487b7100000000000000000000000000000000000000000000000000000000600052604160045260246000fd5b611d1482611ae8565b810181811067ffffffffffffffff82111715611d3357611d32611cdc565b5b80604052505050565b6000611d466119d3565b9050611d528282611d0b565b919050565b600067ffffffffffffffff821115611d7257611d71611cdc565b5b611d7b82611ae8565b9050602081019050919050565b82818337600083830152505050565b6000611daa611da584611d57565b611d3c565b905082815260208101848484011115611dc657611dc5611cd7565b5b611dd1848285611d88565b509392505050565b600082601f830112611dee57611ded611cd2565b5b8135611dfe848260208601611d97565b91505092915050565b60008060408385031215611e1e57611e1d6119dd565b5b6000611e2c85828601611c2a565b925050602083013567ffffffffffffffff811115611e4d57611e4c6119e2565b5b611e5985828601611dd9565b9150509250929050565b600060208284031215611e7957611e786119dd565b5b6000611e8784828501611c2a565b91505092915050565b611e9981611b54565b82525050565b6000602082019050611eb46000830184611e90565b92915050565b611ec381611a6c565b8114611ece57600080fd5b50565b600081359050611ee081611eba565b92915050565b60008060408385031215611efd57611efc6119dd565b5b6000611f0b85828601611c2a565b9250506020611f1c85828601611ed1565b9150509250929050565b600067ffffffffffffffff821115611f4157611f40611cdc565b5b611f4a82611ae8565b9050602081019050919050565b6000611f6a611f6584611f26565b611d3c565b905082815260208101848484011115611f8657611f85611cd7565b5b611f91848285611d88565b509392505050565b600082601f830112611fae57611fad611cd2565b5b8135611fbe848260208601611f57565b91505092915050565b60008060008060808587031215611fe157611fe06119dd565b5b6000611fef87828801611c2a565b945050602061200087828801611c2a565b935050604061201187828801611b75565b925050606085013567ffffffffffffffff811115612032576120316119e2565b5b61203e87828801611f99565b91505092959194509250565b60008060408385031215612061576120606119dd565b5b600061206f85828601611c2a565b925050602061208085828601611c2a565b9150509250929050565b7f4e487b7100000000000000000000000000000000000000000000000000000000600052602260045260246000fd5b600060028204905060018216806120d157607f821691505b6020821081036120e4576120e361208a565b5b50919050565b7f4552433732313a20617070726f76616c20746f2063757272656e74206f776e6560008201527f7200000000000000000000000000000000000000000000000000000000000000602082015250565b6000612146602183611aad565b9150612151826120ea565b604082019050919050565b6000602082019050818103600083015261217581612139565b9050919050565b7f4552433732313a20617070726f76652063616c6c6572206973206e6f7420746f60008201527f6b656e206f776e6572206f7220617070726f76656420666f7220616c6c000000602082015250565b60006121d8603d83611aad565b91506121e38261217c565b604082019050919050565b60006020820190508181036000830152612207816121cb565b9050919050565b7f4552433732313a2063616c6c6572206973206e6f7420746f6b656e206f776e6560008201527f72206f7220617070726f76656400000000000000000000000000000000000000602082015250565b600061226a602d83611aad565b91506122758261220e565b604082019050919050565b600060208201905081810360008301526122998161225d565b9050919050565b7f4e487b7100000000000000000000000000000000000000000000000000000000600052601160045260246000fd5b60006122da82611b54565b91507fffffffffffffffffffffffffffffffffffffffffffffffffffffffffffffffff820361230c5761230b6122a0565b5b600182019050919050565b7f4552433732313a20696e76616c696420746f6b656e2049440000000000000000600082015250565b600061234d601883611aad565b915061235882612317565b602082019050919050565b6000602082019050818103600083015261237c81612340565b9050919050565b7f4552433732313a2061646472657373207a65726f206973206e6f74206120766160008201527f6c6964206f776e65720000000000000000000000000000000000000000000000602082015250565b60006123df602983611aad565b91506123ea82612383565b604082019050919050565b6000602082019050818103600083015261240e816123d2565b9050919050565b600081905092915050565b600061242b82611aa2565b6124358185612415565b9350612445818560208601611abe565b80840191505092915050565b600061245d8285612420565b91506124698284612420565b91508190509392505050565b7f4552433732313a207472616e736665722066726f6d20696e636f72726563742060008201527f6f776e6572000000000000000000000000000000000000000000000000000000602082015250565b60006124d1602583611aad565b91506124dc82612475565b604082019050919050565b60006020820190508181036000830152612500816124c4565b9050919050565b7f4552433732313a207472616e7366657220746f20746865207a65726f2061646460008201527f7265737300000000000000000000000000000000000000000000000000000000602082015250565b6000612563602483611aad565b915061256e82612507565b604082019050919050565b6000602082019050818103600083015261259281612556565b9050919050565b7f45524337323155524953746f726167653a2055524920736574206f66206e6f6e60008201527f6578697374656e7420746f6b656e000000000000000000000000000000000000602082015250565b60006125f5602e83611aad565b915061260082612599565b604082019050919050565b60006020820190508181036000830152612624816125e8565b9050919050565b60008190508160005260206000209050919050565b60006020601f8301049050919050565b600082821b905092915050565b60006008830261268d7fffffffffffffffffffffffffffffffffffffffffffffffffffffffffffffffff82612650565b6126978683612650565b95508019841693508086168417925050509392505050565b6000819050919050565b60006126d46126cf6126ca84611b54565b6126af565b611b54565b9050919050565b6000819050919050565b6126ee836126b9565b6127026126fa826126db565b84845461265d565b825550505050565b600090565b61271761270a565b6127228184846126e5565b505050565b5b818110156127465761273b60008261270f565b600181019050612728565b5050565b601f82111561278b5761275c8161262b565b61276584612640565b81016020851015612774578190505b61278861278085612640565b830182612727565b50505b505050565b600082821c905092915050565b60006127ae60001984600802612790565b1980831691505092915050565b60006127c7838361279d565b9150826002028217905092915050565b6127e082611aa2565b67ffffffffffffffff8111156127f9576127f8611cdc565b5b61280382546120b9565b61280e82828561274a565b600060209050601f831160018114612841576000841561282f578287015190505b61283985826127bb565b8655506128a1565b601f19841661284f8661262b565b60005b8281101561287757848901518255600182019150602085019450602081019050612852565b868310156128945784890151612890601f89168261279d565b8355505b6001600288020188555050505b505050505050565b7f4552433732313a20617070726f766520746f2063616c6c657200000000000000600082015250565b60006128df601983611aad565b91506128ea826128a9565b602082019050919050565b6000602082019050818103600083015261290e816128d2565b9050919050565b7f4552433732313a207472616e7366657220746f206e6f6e20455243373231526560008201527f63656976657220696d706c656d656e7465720000000000000000000000000000602082015250565b6000612971603283611aad565b915061297c82612915565b604082019050919050565b600060208201905081810360008301526129a081612964565b9050919050565b600081519050919050565b600082825260208201905092915050565b60006129ce826129a7565b6129d881856129b2565b93506129e8818560208601611abe565b6129f181611ae8565b840191505092915050565b6000608082019050612a116000830187611be9565b612a1e6020830186611be9565b612a2b6040830185611e90565b8181036060830152612a3d81846129c3565b905095945050505050565b600081519050612a5781611a13565b92915050565b600060208284031215612a7357612a726119dd565b5b6000612a8184828501612a48565b91505092915050565b7f4e487b7100000000000000000000000000000000000000000000000000000000600052601260045260246000fd5b7f4552433732313a206d696e7420746f20746865207a65726f2061646472657373600082015250565b6000612aef602083611aad565b9150612afa82612ab9565b602082019050919050565b60006020820190508181036000830152612b1e81612ae2565b9050919050565b7f4552433732313a20746f6b656e20616c7265616479206d696e74656400000000600082015250565b6000612b5b601c83611aad565b9150612b6682612b25565b602082019050919050565b60006020820190508181036000830152612b8a81612b4e565b905091905056fea2646970667358221220eefb718adfa6ed60bde02e2c609dace753fd18339c0c918035e143692046a1e964736f6c63430008110033",
  "immutableReferences": {},
  "source": "// SPDX-License-Identifier: MIT\r\npragma solidity ^0.8.17;\r\n\r\nimport \"@openzeppelin/contracts/token/ERC721/extensions/ERC721URIStorage.sol\";\r\n\r\ncontract EventTicketNFT is ERC721URIStorage {\r\n    uint256 public nextTokenId = 1;\r\n\r\n    constructor(string memory name, string memory symbol) ERC721(name, symbol) {}\r\n\r\n    function mintTicket(address to, string memory tokenURI) external {\r\n        uint256 tokenId = nextTokenId;\r\n        _safeMint(to, tokenId);\r\n        _setTokenURI(tokenId, tokenURI);\r\n        nextTokenId++;\r\n    }\r\n}\r\n",
  "sourcePath": "C:\\Users\\edgar\\Downloads\\blockchain_project\\contracts\\EventTicketNFT.sol",
  "compiler": {
    "name": "solc",
    "version": "0.8.17+commit.8df45f5f.Emscripten.clang"
  },
  "schemaVersion": "3.4.16",
  "updatedAt": "2025-07-08T05:49:08.263Z",
  "networkType": "ethereum",
  "devdoc": {
    "kind": "dev",
    "methods": {
      "approve(address,uint256)": {
        "details": "See {IERC721-approve}."
      },
      "balanceOf(address)": {
        "details": "See {IERC721-balanceOf}."
      },
      "getApproved(uint256)": {
        "details": "See {IERC721-getApproved}."
      },
      "isApprovedForAll(address,address)": {
        "details": "See {IERC721-isApprovedForAll}."
      },
      "name()": {
        "details": "See {IERC721Metadata-name}."
      },
      "ownerOf(uint256)": {
        "details": "See {IERC721-ownerOf}."
      },
      "safeTransferFrom(address,address,uint256)": {
        "details": "See {IERC721-safeTransferFrom}."
      },
      "safeTransferFrom(address,address,uint256,bytes)": {
        "details": "See {IERC721-safeTransferFrom}."
      },
      "setApprovalForAll(address,bool)": {
        "details": "See {IERC721-setApprovalForAll}."
      },
      "supportsInterface(bytes4)": {
        "details": "See {IERC165-supportsInterface}"
      },
      "symbol()": {
        "details": "See {IERC721Metadata-symbol}."
      },
      "tokenURI(uint256)": {
        "details": "See {IERC721Metadata-tokenURI}."
      },
      "transferFrom(address,address,uint256)": {
        "details": "See {IERC721-transferFrom}."
      }
    },
    "version": 1
  },
  "userdoc": {
    "kind": "user",
    "methods": {},
    "version": 1
  }
}