{
  "contractName": "TicketFactory",
  "abi": [
    {
      "inputs": [
        {
          "internalType": "uint256",
          "name": "eventId",
          "type": "uint256"
        },
        {
          "internalType": "uint256",
          "name": "typeAQty",
          "type": "uint256"
        },
        {
          "internalType": "uint256",
          "name": "typeAPrice",
          "type": "uint256"
        },
        {
          "internalType": "uint256",
          "name": "typeBQty",
          "type": "uint256"
        },
        {
          "internalType": "uint256",
          "name": "typeBPrice",
          "type": "uint256"
        },
        {
          "internalType": "uint256",
          "name": "typeVIPQty",
          "type": "uint256"
        },
        {
          "internalType": "uint256",
          "name": "typeVIPPrice",
          "type": "uint256"
        },
        {
          "internalType": "bool",
          "name": "resellable",
          "type": "bool"
        }
      ],
      "name": "generateEventTickets",
      "outputs": [],
      "stateMutability": "nonpayable",
      "type": "function"
    },
    {
      "inputs": [
        {
          "internalType": "uint256",
          "name": "eventId",
          "type": "uint256"
        },
        {
          "internalType": "uint256",
          "name": "ticketId",
          "type": "uint256"
        }
      ],
      "name": "buyTicket",
      "outputs": [],
      "stateMutability": "payable",
      "type": "function",
      "payable": true
    },
    {
      "inputs": [
        {
          "internalType": "uint256",
          "name": "eventId",
          "type": "uint256"
        }
      ],
      "name": "getTicketsByEvent",
      "outputs": [
        {
          "components": [
            {
              "internalType": "uint256",
              "name": "eventId",
              "type": "uint256"
            },
            {
              "internalType": "uint256",
              "name": "ticketId",
              "type": "uint256"
            },
            {
              "internalType": "uint256",
              "name": "price",
              "type": "uint256"
            },
            {
              "internalType": "string",
              "name": "ticketType",
              "type": "string"
            },
            {
              "internalType": "address",
              "name": "owner",
              "type": "address"
            },
            {
              "internalType": "bool",
              "name": "resellable",
              "type": "bool"
            },
            {
              "internalType": "bool",
              "name": "sold",
              "type": "bool"
            },
            {
              "internalType": "bool",
              "name": "scanned",
              "type": "bool"
            },
            {
              "internalType": "uint256",
              "name": "row",
              "type": "uint256"
            },
            {
              "internalType": "uint256",
              "name": "column",
              "type": "uint256"
            }
          ],
          "internalType": "struct TicketFactory.Item[]",
          "name": "",
          "type": "tuple[]"
        }
      ],
      "stateMutability": "view",
      "type": "function",
      "constant": true
    },
    {
      "inputs": [
        {
          "internalType": "address",
          "name": "user",
          "type": "address"
        }
      ],
      "name": "getOwnedEventIds",
      "outputs": [
        {
          "internalType": "uint256[]",
          "name": "",
          "type": "uint256[]"
        }
      ],
      "stateMutability": "view",
      "type": "function",
      "constant": true
    }
  ],
  "bytecode": "0x608060405234801561001057600080fd5b50611554806100206000396000f3fe60806040526004361061003f5760003560e01c80630c73e5c31461004457806322c4ef081461006d578063298ec208146100aa5780636a61d061146100c6575b600080fd5b34801561005057600080fd5b5061006b60048036038101906100669190610b1c565b610103565b005b34801561007957600080fd5b50610094600480360381019061008f9190610c30565b6101d3565b6040516100a19190610d1b565b60405180910390f35b6100c460048036038101906100bf9190610d3d565b61026a565b005b3480156100d257600080fd5b506100ed60048036038101906100e89190610d7d565b610521565b6040516100fa9190610ff4565b60405180910390f35b6101458888886040518060400160405280600581526020017f747970654100000000000000000000000000000000000000000000000000000081525085610833565b6101878886866040518060400160405280600581526020017f747970654200000000000000000000000000000000000000000000000000000081525085610833565b6101c98884846040518060400160405280600781526020017f747970655649500000000000000000000000000000000000000000000000000081525085610833565b5050505050505050565b6060600160008373ffffffffffffffffffffffffffffffffffffffff1673ffffffffffffffffffffffffffffffffffffffff16815260200190815260200160002080548060200260200160405190810160405280929190818152602001828054801561025e57602002820191906000526020600020905b81548152602001906001019080831161024a575b50505050509050919050565b60008060008481526020019081526020016000209050806000018054905082106102c9576040517f08c379a00000000000000000000000000000000000000000000000000000000081526004016102c090611073565b60405180910390fd5b60008160000183815481106102e1576102e0611093565b5b906000526020600020906007020190508060040160159054906101000a900460ff1615610343576040517f08c379a000000000000000000000000000000000000000000000000000000000815260040161033a9061110e565b60405180910390fd5b80600201543414610389576040517f08c379a00000000000000000000000000000000000000000000000000000000081526004016103809061117a565b60405180910390fd5b338160040160006101000a81548173ffffffffffffffffffffffffffffffffffffffff021916908373ffffffffffffffffffffffffffffffffffffffff16021790555060018160040160156101000a81548160ff021916908315150217905550600260003373ffffffffffffffffffffffffffffffffffffffff1673ffffffffffffffffffffffffffffffffffffffff168152602001908152602001600020600085815260200190815260200160002060009054906101000a900460ff1661051b57600160003373ffffffffffffffffffffffffffffffffffffffff1673ffffffffffffffffffffffffffffffffffffffff1681526020019081526020016000208490806001815401808255809150506001900390600052602060002001600090919091909150556001600260003373ffffffffffffffffffffffffffffffffffffffff1673ffffffffffffffffffffffffffffffffffffffff168152602001908152602001600020600086815260200190815260200160002060006101000a81548160ff0219169083151502179055505b50505050565b6060600080600084815260200190815260200160002090506000816000018054905090506000805b828110156105ac5783600001818154811061056757610566611093565b5b906000526020600020906007020160040160159054906101000a900460ff16610599578180610595906111c9565b9250505b80806105a4906111c9565b915050610549565b5060008167ffffffffffffffff8111156105c9576105c8611211565b5b60405190808252806020026020018201604052801561060257816020015b6105ef610a3a565b8152602001906001900390816105e75790505b5090506000805b848110156108255785600001818154811061062757610626611093565b5b906000526020600020906007020160040160159054906101000a900460ff16610812578560000181815481106106605761065f611093565b5b9060005260206000209060070201604051806101400160405290816000820154815260200160018201548152602001600282015481526020016003820180546106a89061126f565b80601f01602080910402602001604051908101604052809291908181526020018280546106d49061126f565b80156107215780601f106106f657610100808354040283529160200191610721565b820191906000526020600020905b81548152906001019060200180831161070457829003601f168201915b505050505081526020016004820160009054906101000a900473ffffffffffffffffffffffffffffffffffffffff1673ffffffffffffffffffffffffffffffffffffffff1673ffffffffffffffffffffffffffffffffffffffff1681526020016004820160149054906101000a900460ff161515151581526020016004820160159054906101000a900460ff161515151581526020016004820160169054906101000a900460ff16151515158152602001600582015481526020016006820154815250508383815181106107f8576107f7611093565b5b6020026020010181905250818061080e906111c9565b9250505b808061081d906111c9565b915050610609565b508195505050505050919050565b6000806000878152602001908152602001600020905060006001905060006001905060005b87811015610a2f57600084600001805490509050846000016040518061014001604052808c81526020018381526020018a8152602001898152602001600073ffffffffffffffffffffffffffffffffffffffff16815260200188151581526020016000151581526020016000151581526020018681526020018581525090806001815401808255809150506001900390600052602060002090600702016000909190919091506000820151816000015560208201518160010155604082015181600201556060820151816003019081610931919061144c565b5060808201518160040160006101000a81548173ffffffffffffffffffffffffffffffffffffffff021916908373ffffffffffffffffffffffffffffffffffffffff16021790555060a08201518160040160146101000a81548160ff02191690831515021790555060c08201518160040160156101000a81548160ff02191690831515021790555060e08201518160040160166101000a81548160ff02191690831515021790555061010082015181600501556101208201518160060155505082806109fc906111c9565b935050600a831115610a1b57600192508380610a17906111c9565b9450505b508080610a27906111c9565b915050610858565b505050505050505050565b60405180610140016040528060008152602001600081526020016000815260200160608152602001600073ffffffffffffffffffffffffffffffffffffffff16815260200160001515815260200160001515815260200160001515815260200160008152602001600081525090565b600080fd5b6000819050919050565b610ac181610aae565b8114610acc57600080fd5b50565b600081359050610ade81610ab8565b92915050565b60008115159050919050565b610af981610ae4565b8114610b0457600080fd5b50565b600081359050610b1681610af0565b92915050565b600080600080600080600080610100898b031215610b3d57610b3c610aa9565b5b6000610b4b8b828c01610acf565b9850506020610b5c8b828c01610acf565b9750506040610b6d8b828c01610acf565b9650506060610b7e8b828c01610acf565b9550506080610b8f8b828c01610acf565b94505060a0610ba08b828c01610acf565b93505060c0610bb18b828c01610acf565b92505060e0610bc28b828c01610b07565b9150509295985092959890939650565b600073ffffffffffffffffffffffffffffffffffffffff82169050919050565b6000610bfd82610bd2565b9050919050565b610c0d81610bf2565b8114610c1857600080fd5b50565b600081359050610c2a81610c04565b92915050565b600060208284031215610c4657610c45610aa9565b5b6000610c5484828501610c1b565b91505092915050565b600081519050919050565b600082825260208201905092915050565b6000819050602082019050919050565b610c9281610aae565b82525050565b6000610ca48383610c89565b60208301905092915050565b6000602082019050919050565b6000610cc882610c5d565b610cd28185610c68565b9350610cdd83610c79565b8060005b83811015610d0e578151610cf58882610c98565b9750610d0083610cb0565b925050600181019050610ce1565b5085935050505092915050565b60006020820190508181036000830152610d358184610cbd565b905092915050565b60008060408385031215610d5457610d53610aa9565b5b6000610d6285828601610acf565b9250506020610d7385828601610acf565b9150509250929050565b600060208284031215610d9357610d92610aa9565b5b6000610da184828501610acf565b91505092915050565b600081519050919050565b600082825260208201905092915050565b6000819050602082019050919050565b600081519050919050565b600082825260208201905092915050565b60005b83811015610e10578082015181840152602081019050610df5565b60008484015250505050565b6000601f19601f8301169050919050565b6000610e3882610dd6565b610e428185610de1565b9350610e52818560208601610df2565b610e5b81610e1c565b840191505092915050565b610e6f81610bf2565b82525050565b610e7e81610ae4565b82525050565b600061014083016000830151610e9d6000860182610c89565b506020830151610eb06020860182610c89565b506040830151610ec36040860182610c89565b5060608301518482036060860152610edb8282610e2d565b9150506080830151610ef06080860182610e66565b5060a0830151610f0360a0860182610e75565b5060c0830151610f1660c0860182610e75565b5060e0830151610f2960e0860182610e75565b50610100830151610f3e610100860182610c89565b50610120830151610f53610120860182610c89565b508091505092915050565b6000610f6a8383610e84565b905092915050565b6000602082019050919050565b6000610f8a82610daa565b610f948185610db5565b935083602082028501610fa685610dc6565b8060005b85811015610fe25784840389528151610fc38582610f5e565b9450610fce83610f72565b925060208a01995050600181019050610faa565b50829750879550505050505092915050565b6000602082019050818103600083015261100e8184610f7f565b905092915050565b600082825260208201905092915050565b7f496e76616c6964207469636b6574496400000000000000000000000000000000600082015250565b600061105d601083611016565b915061106882611027565b602082019050919050565b6000602082019050818103600083015261108c81611050565b9050919050565b7f4e487b7100000000000000000000000000000000000000000000000000000000600052603260045260246000fd5b7f5469636b657420616c726561647920736f6c6400000000000000000000000000600082015250565b60006110f8601383611016565b9150611103826110c2565b602082019050919050565b60006020820190508181036000830152611127816110eb565b9050919050565b7f496e636f7272656374207061796d656e7420616d6f756e740000000000000000600082015250565b6000611164601883611016565b915061116f8261112e565b602082019050919050565b6000602082019050818103600083015261119381611157565b9050919050565b7f4e487b7100000000000000000000000000000000000000000000000000000000600052601160045260246000fd5b60006111d482610aae565b91507fffffffffffffffffffffffffffffffffffffffffffffffffffffffffffffffff82036112065761120561119a565b5b600182019050919050565b7f4e487b7100000000000000000000000000000000000000000000000000000000600052604160045260246000fd5b7f4e487b7100000000000000000000000000000000000000000000000000000000600052602260045260246000fd5b6000600282049050600182168061128757607f821691505b60208210810361129a57611299611240565b5b50919050565b60008190508160005260206000209050919050565b60006020601f8301049050919050565b600082821b905092915050565b6000600883026113027fffffffffffffffffffffffffffffffffffffffffffffffffffffffffffffffff826112c5565b61130c86836112c5565b95508019841693508086168417925050509392505050565b6000819050919050565b600061134961134461133f84610aae565b611324565b610aae565b9050919050565b6000819050919050565b6113638361132e565b61137761136f82611350565b8484546112d2565b825550505050565b600090565b61138c61137f565b61139781848461135a565b505050565b5b818110156113bb576113b0600082611384565b60018101905061139d565b5050565b601f821115611400576113d1816112a0565b6113da846112b5565b810160208510156113e9578190505b6113fd6113f5856112b5565b83018261139c565b50505b505050565b600082821c905092915050565b600061142360001984600802611405565b1980831691505092915050565b600061143c8383611412565b9150826002028217905092915050565b61145582610dd6565b67ffffffffffffffff81111561146e5761146d611211565b5b611478825461126f565b6114838282856113bf565b600060209050601f8311600181146114b657600084156114a4578287015190505b6114ae8582611430565b865550611516565b601f1984166114c4866112a0565b60005b828110156114ec578489015182556001820191506020850194506020810190506114c7565b868310156115095784890151611505601f891682611412565b8355505b6001600288020188555050505b50505050505056fea2646970667358221220a34d70afec7ee1426fe6642b4a50d3bc826e833082e3614519ea3994bc2d01b464736f6c63430008110033",
  "immutableReferences": {},
  "source": "// SPDX-License-Identifier: MIT\r\npragma solidity ^0.8.17;\r\n\r\ncontract TicketFactory {\r\n    struct Item {\r\n        uint256 eventId;\r\n        uint256 ticketId;\r\n        uint256 price;\r\n        string ticketType;\r\n        address owner;\r\n        bool resellable;\r\n        bool sold;\r\n        bool scanned;\r\n        uint256 row;\r\n        uint256 column;\r\n    }\r\n\r\n    struct EventTickets {\r\n        Item[] items;\r\n    }\r\n\r\n    // Mapping from eventId to tickets\r\n    mapping(uint256 => EventTickets) private ticketsPerEvent;\r\n\r\n    //  Mapping to track events owned by each address\r\n    mapping(address => uint256[]) private ownedEventIds;\r\n    mapping(address => mapping(uint256 => bool)) private hasEvent; // for duplicate prevention\r\n\r\n    // Generate tickets for an event with three categories\r\n    function generateEventTickets(\r\n        uint256 eventId,\r\n        uint256 typeAQty,\r\n        uint256 typeAPrice,\r\n        uint256 typeBQty,\r\n        uint256 typeBPrice,\r\n        uint256 typeVIPQty,\r\n        uint256 typeVIPPrice,\r\n        bool resellable\r\n    ) external {\r\n        _addTickets(eventId, typeAQty, typeAPrice, \"typeA\", resellable);\r\n        _addTickets(eventId, typeBQty, typeBPrice, \"typeB\", resellable);\r\n        _addTickets(eventId, typeVIPQty, typeVIPPrice, \"typeVIP\", resellable);\r\n    }\r\n\r\n    // Internal function to create a batch of tickets\r\n    function _addTickets(\r\n        uint256 eventId,\r\n        uint256 quantity,\r\n        uint256 price,\r\n        string memory ticketType,\r\n        bool resellable\r\n    ) internal {\r\n        EventTickets storage eventTickets = ticketsPerEvent[eventId];\r\n\r\n        uint256 currentRow = 1;\r\n        uint256 currentColumn = 1;\r\n\r\n        for (uint256 i = 0; i < quantity; i++) {\r\n            uint256 ticketId = eventTickets.items.length;\r\n            eventTickets.items.push(Item({\r\n                eventId: eventId,\r\n                ticketId: ticketId,\r\n                price: price,\r\n                ticketType: ticketType,\r\n                owner: address(0),\r\n                resellable: resellable,\r\n                sold: false,\r\n                scanned: false,\r\n                row: currentRow,\r\n                column: currentColumn\r\n            }));\r\n\r\n            currentColumn++;\r\n            if (currentColumn > 10) {\r\n                currentColumn = 1;\r\n                currentRow++;\r\n            }\r\n        }\r\n    }\r\n\r\n    //  Buy ticket and track ownership\r\n    function buyTicket(uint256 eventId, uint256 ticketId) external payable {\r\n        EventTickets storage eventTickets = ticketsPerEvent[eventId];\r\n        require(ticketId < eventTickets.items.length, \"Invalid ticketId\");\r\n\r\n        Item storage ticket = eventTickets.items[ticketId];\r\n\r\n        require(!ticket.sold, \"Ticket already sold\");\r\n        require(msg.value == ticket.price, \"Incorrect payment amount\");\r\n\r\n        ticket.owner = msg.sender;\r\n        ticket.sold = true;\r\n\r\n        // Track event ownership only once per user\r\n        if (!hasEvent[msg.sender][eventId]) {\r\n            ownedEventIds[msg.sender].push(eventId);\r\n            hasEvent[msg.sender][eventId] = true;\r\n        }\r\n\r\n        // Funds could be forwarded to event organizer here if needed\r\n        // payable(organizer).transfer(msg.value);\r\n    }\r\n\r\n    // View function to get unsold tickets for an event\r\n    function getTicketsByEvent(uint256 eventId) external view returns (Item[] memory) {\r\n        EventTickets storage eventTickets = ticketsPerEvent[eventId];\r\n        uint256 total = eventTickets.items.length;\r\n\r\n        uint256 unsoldCount = 0;\r\n        for (uint256 i = 0; i < total; i++) {\r\n            if (!eventTickets.items[i].sold) {\r\n                unsoldCount++;\r\n            }\r\n        }\r\n\r\n        Item[] memory unsoldTickets = new Item[](unsoldCount);\r\n        uint256 index = 0;\r\n\r\n        for (uint256 i = 0; i < total; i++) {\r\n            if (!eventTickets.items[i].sold) {\r\n                unsoldTickets[index] = eventTickets.items[i];\r\n                index++;\r\n            }\r\n        }\r\n\r\n        return unsoldTickets;\r\n    }\r\n\r\n    //  Public view to get all event IDs a user has purchased tickets for\r\n    function getOwnedEventIds(address user) external view returns (uint256[] memory) {\r\n        return ownedEventIds[user];\r\n    }\r\n}\r\n",
  "sourcePath": "C:\\Users\\edgar\\Downloads\\blockchain_project\\contracts\\TicketFactory.sol",
  "compiler": {
    "name": "solc",
    "version": "0.8.17+commit.8df45f5f.Emscripten.clang"
  },
  "schemaVersion": "3.4.16",
  "updatedAt": "2025-06-27T02:35:58.313Z",
  "networkType": "ethereum",
  "devdoc": {
    "kind": "dev",
    "methods": {},
    "version": 1
  },
  "userdoc": {
    "kind": "user",
    "methods": {},
    "version": 1
  }
}