{
  "contractName": "TicketFactory",
  "abi": [
    {
      "inputs": [],
      "name": "currentArrayId",
      "outputs": [
        {
          "internalType": "uint256",
          "name": "",
          "type": "uint256"
        }
      ],
      "stateMutability": "view",
      "type": "function",
      "constant": true
    },
    {
      "inputs": [
        {
          "internalType": "uint256",
          "name": "",
          "type": "uint256"
        },
        {
          "internalType": "uint256",
          "name": "",
          "type": "uint256"
        }
      ],
      "name": "items_map",
      "outputs": [
        {
          "internalType": "uint256",
          "name": "eventId",
          "type": "uint256"
        },
        {
          "internalType": "uint256",
          "name": "ticketId",
          "type": "uint256"
        },
        {
          "internalType": "uint256",
          "name": "price",
          "type": "uint256"
        },
        {
          "internalType": "string",
          "name": "ticketType",
          "type": "string"
        },
        {
          "internalType": "address",
          "name": "owner",
          "type": "address"
        },
        {
          "internalType": "bool",
          "name": "resellable",
          "type": "bool"
        },
        {
          "internalType": "bool",
          "name": "sold",
          "type": "bool"
        },
        {
          "internalType": "uint256",
          "name": "row",
          "type": "uint256"
        },
        {
          "internalType": "uint256",
          "name": "column",
          "type": "uint256"
        }
      ],
      "stateMutability": "view",
      "type": "function",
      "constant": true
    },
    {
      "inputs": [
        {
          "internalType": "uint256",
          "name": "_eventId",
          "type": "uint256"
        },
        {
          "internalType": "uint256",
          "name": "_typeAQty",
          "type": "uint256"
        },
        {
          "internalType": "uint256",
          "name": "_typeAPrice",
          "type": "uint256"
        },
        {
          "internalType": "uint256",
          "name": "_typeBQty",
          "type": "uint256"
        },
        {
          "internalType": "uint256",
          "name": "_typeBPrice",
          "type": "uint256"
        },
        {
          "internalType": "uint256",
          "name": "_typeVIPQty",
          "type": "uint256"
        },
        {
          "internalType": "uint256",
          "name": "_typeVIPPrice",
          "type": "uint256"
        },
        {
          "internalType": "bool",
          "name": "_resellable",
          "type": "bool"
        }
      ],
      "name": "addItems",
      "outputs": [],
      "stateMutability": "nonpayable",
      "type": "function"
    },
    {
      "inputs": [
        {
          "internalType": "uint256",
          "name": "eventId",
          "type": "uint256"
        },
        {
          "internalType": "uint256",
          "name": "ticketId",
          "type": "uint256"
        }
      ],
      "name": "buyTicket",
      "outputs": [],
      "stateMutability": "payable",
      "type": "function",
      "payable": true
    },
    {
      "inputs": [
        {
          "internalType": "uint256",
          "name": "arrayId",
          "type": "uint256"
        },
        {
          "internalType": "uint256",
          "name": "index",
          "type": "uint256"
        }
      ],
      "name": "getItem",
      "outputs": [
        {
          "internalType": "uint256",
          "name": "row",
          "type": "uint256"
        },
        {
          "internalType": "uint256",
          "name": "column",
          "type": "uint256"
        },
        {
          "internalType": "string",
          "name": "_type",
          "type": "string"
        }
      ],
      "stateMutability": "view",
      "type": "function",
      "constant": true
    },
    {
      "inputs": [
        {
          "internalType": "uint256",
          "name": "key",
          "type": "uint256"
        }
      ],
      "name": "getItemsByEvent",
      "outputs": [
        {
          "components": [
            {
              "internalType": "uint256",
              "name": "eventId",
              "type": "uint256"
            },
            {
              "internalType": "uint256",
              "name": "ticketId",
              "type": "uint256"
            },
            {
              "internalType": "uint256",
              "name": "price",
              "type": "uint256"
            },
            {
              "internalType": "string",
              "name": "ticketType",
              "type": "string"
            },
            {
              "internalType": "address",
              "name": "owner",
              "type": "address"
            },
            {
              "internalType": "bool",
              "name": "resellable",
              "type": "bool"
            },
            {
              "internalType": "bool",
              "name": "sold",
              "type": "bool"
            },
            {
              "internalType": "uint256",
              "name": "row",
              "type": "uint256"
            },
            {
              "internalType": "uint256",
              "name": "column",
              "type": "uint256"
            }
          ],
          "internalType": "struct TicketFactory.Item[]",
          "name": "",
          "type": "tuple[]"
        }
      ],
      "stateMutability": "view",
      "type": "function",
      "constant": true
    }
  ],
  "bytecode": "0x608060405234801561001057600080fd5b50611449806100206000396000f3fe6080604052600436106100555760003560e01c80630c1554841461005a578063298ec2081461008357806359cc334a1461009f5780636057857e146100de578063983f3a6714610109578063f03c8df51461014e575b600080fd5b34801561006657600080fd5b50610081600480360381019061007c9190610cbf565b61018b565b005b61009d60048036038101906100989190610c83565b61028f565b005b3480156100ab57600080fd5b506100c660048036038101906100c19190610c83565b61057a565b6040516100d593929190611148565b60405180910390f35b3480156100ea57600080fd5b506100f36106da565b604051610100919061112d565b60405180910390f35b34801561011557600080fd5b50610130600480360381019061012b9190610c83565b6106e0565b60405161014599989796959493929190611186565b60405180910390f35b34801561015a57600080fd5b5061017560048036038101906101709190610c5a565b61080d565b604051610182919061108b565b60405180910390f35b6000806000600154815260200190815260200160002090506101e6818a8a8a6040518060400160405280600581526020017f7479706541000000000000000000000000000000000000000000000000000000815250876109cf565b610229818a88886040518060400160405280600581526020017f7479706542000000000000000000000000000000000000000000000000000000815250876109cf565b61026c818a86866040518060400160405280600781526020017f7479706556495000000000000000000000000000000000000000000000000000815250876109cf565b6001600081548092919061027f9061132d565b9190505550505050505050505050565b600080600084815260200190815260200160002090506000805b828054905081101561053357838382815481106102ef577f4e487b7100000000000000000000000000000000000000000000000000000000600052603260045260246000fd5b90600052602060002090600702016001015414156105205760019150828181548110610344577f4e487b7100000000000000000000000000000000000000000000000000000000600052603260045260246000fd5b906000526020600020906007020160040160159054906101000a900460ff16156103a3576040517f08c379a000000000000000000000000000000000000000000000000000000000815260040161039a906110cd565b60405180910390fd5b8281815481106103dc577f4e487b7100000000000000000000000000000000000000000000000000000000600052603260045260246000fd5b906000526020600020906007020160020154341461042f576040517f08c379a0000000000000000000000000000000000000000000000000000000008152600401610426906110ed565b60405180910390fd5b33838281548110610469577f4e487b7100000000000000000000000000000000000000000000000000000000600052603260045260246000fd5b906000526020600020906007020160040160006101000a81548173ffffffffffffffffffffffffffffffffffffffff021916908373ffffffffffffffffffffffffffffffffffffffff16021790555060018382815481106104f3577f4e487b7100000000000000000000000000000000000000000000000000000000600052603260045260246000fd5b906000526020600020906007020160040160156101000a81548160ff021916908315150217905550610533565b808061052b9061132d565b9150506102a9565b5080610574576040517f08c379a000000000000000000000000000000000000000000000000000000000815260040161056b906110ad565b60405180910390fd5b50505050565b60008060606000808681526020019081526020016000208054905084106105d6576040517f08c379a00000000000000000000000000000000000000000000000000000000081526004016105cd9061110d565b60405180910390fd5b60008060008781526020019081526020016000208581548110610622577f4e487b7100000000000000000000000000000000000000000000000000000000600052603260045260246000fd5b90600052602060002090600702019050806005015481600601548260030180805461064c906112fb565b80601f0160208091040260200160405190810160405280929190818152602001828054610678906112fb565b80156106c55780601f1061069a576101008083540402835291602001916106c5565b820191906000526020600020905b8154815290600101906020018083116106a857829003601f168201915b50505050509050935093509350509250925092565b60015481565b600060205281600052604060002081815481106106fc57600080fd5b906000526020600020906007020160009150915050806000015490806001015490806002015490806003018054610732906112fb565b80601f016020809104026020016040519081016040528092919081815260200182805461075e906112fb565b80156107ab5780601f10610780576101008083540402835291602001916107ab565b820191906000526020600020905b81548152906001019060200180831161078e57829003601f168201915b5050505050908060040160009054906101000a900473ffffffffffffffffffffffffffffffffffffffff16908060040160149054906101000a900460ff16908060040160159054906101000a900460ff16908060050154908060060154905089565b6060600080838152602001908152602001600020805480602002602001604051908101604052809291908181526020016000905b828210156109c4578382906000526020600020906007020160405180610120016040529081600082015481526020016001820154815260200160028201548152602001600382018054610893906112fb565b80601f01602080910402602001604051908101604052809291908181526020018280546108bf906112fb565b801561090c5780601f106108e15761010080835404028352916020019161090c565b820191906000526020600020905b8154815290600101906020018083116108ef57829003601f168201915b505050505081526020016004820160009054906101000a900473ffffffffffffffffffffffffffffffffffffffff1673ffffffffffffffffffffffffffffffffffffffff1673ffffffffffffffffffffffffffffffffffffffff1681526020016004820160149054906101000a900460ff161515151581526020016004820160159054906101000a900460ff161515151581526020016005820154815260200160068201548152505081526020019060010190610841565b505050509050919050565b60006001905060006001905060005b86811015610b8257886040518061012001604052808a8152602001838152602001888152602001878152602001600073ffffffffffffffffffffffffffffffffffffffff16815260200186151581526020016000151581526020018581526020018481525090806001815401808255809150506001900390600052602060002090600702016000909190919091506000820151816000015560208201518160010155604082015181600201556060820151816003019080519060200190610aa6929190610b8d565b5060808201518160040160006101000a81548173ffffffffffffffffffffffffffffffffffffffff021916908373ffffffffffffffffffffffffffffffffffffffff16021790555060a08201518160040160146101000a81548160ff02191690831515021790555060c08201518160040160156101000a81548160ff02191690831515021790555060e08201518160050155610100820151816006015550508180610b509061132d565b925050600a821115610b6f57600191508280610b6b9061132d565b9350505b8080610b7a9061132d565b9150506109de565b505050505050505050565b828054610b99906112fb565b90600052602060002090601f016020900481019282610bbb5760008555610c02565b82601f10610bd457805160ff1916838001178555610c02565b82800160010185558215610c02579182015b82811115610c01578251825591602001919060010190610be6565b5b509050610c0f9190610c13565b5090565b5b80821115610c2c576000816000905550600101610c14565b5090565b600081359050610c3f816113e5565b92915050565b600081359050610c54816113fc565b92915050565b600060208284031215610c6c57600080fd5b6000610c7a84828501610c45565b91505092915050565b60008060408385031215610c9657600080fd5b6000610ca485828601610c45565b9250506020610cb585828601610c45565b9150509250929050565b600080600080600080600080610100898b031215610cdc57600080fd5b6000610cea8b828c01610c45565b9850506020610cfb8b828c01610c45565b9750506040610d0c8b828c01610c45565b9650506060610d1d8b828c01610c45565b9550506080610d2e8b828c01610c45565b94505060a0610d3f8b828c01610c45565b93505060c0610d508b828c01610c45565b92505060e0610d618b828c01610c30565b9150509295985092959890939650565b6000610d7d8383610fa8565b905092915050565b610d8e81611280565b82525050565b610d9d81611280565b82525050565b6000610dae8261122a565b610db8818561124d565b935083602082028501610dca8561121a565b8060005b85811015610e065784840389528151610de78582610d71565b9450610df283611240565b925060208a01995050600181019050610dce565b50829750879550505050505092915050565b610e2181611292565b82525050565b610e3081611292565b82525050565b6000610e4182611235565b610e4b818561125e565b9350610e5b8185602086016112c8565b610e64816113d4565b840191505092915050565b6000610e7a82611235565b610e84818561126f565b9350610e948185602086016112c8565b610e9d816113d4565b840191505092915050565b6000610eb560108361126f565b91507f5469636b6574206e6f7420666f756e64000000000000000000000000000000006000830152602082019050919050565b6000610ef560138361126f565b91507f5469636b657420616c726561647920736f6c64000000000000000000000000006000830152602082019050919050565b6000610f3560168361126f565b91507f496e636f7272656374207469636b6574207072696365000000000000000000006000830152602082019050919050565b6000610f7560138361126f565b91507f496e646578206f7574206f6620626f756e6473000000000000000000000000006000830152602082019050919050565b600061012083016000830151610fc1600086018261106d565b506020830151610fd4602086018261106d565b506040830151610fe7604086018261106d565b5060608301518482036060860152610fff8282610e36565b91505060808301516110146080860182610d85565b5060a083015161102760a0860182610e18565b5060c083015161103a60c0860182610e18565b5060e083015161104d60e086018261106d565b5061010083015161106261010086018261106d565b508091505092915050565b611076816112be565b82525050565b611085816112be565b82525050565b600060208201905081810360008301526110a58184610da3565b905092915050565b600060208201905081810360008301526110c681610ea8565b9050919050565b600060208201905081810360008301526110e681610ee8565b9050919050565b6000602082019050818103600083015261110681610f28565b9050919050565b6000602082019050818103600083015261112681610f68565b9050919050565b6000602082019050611142600083018461107c565b92915050565b600060608201905061115d600083018661107c565b61116a602083018561107c565b818103604083015261117c8184610e6f565b9050949350505050565b60006101208201905061119c600083018c61107c565b6111a9602083018b61107c565b6111b6604083018a61107c565b81810360608301526111c88189610e6f565b90506111d76080830188610d94565b6111e460a0830187610e27565b6111f160c0830186610e27565b6111fe60e083018561107c565b61120c61010083018461107c565b9a9950505050505050505050565b6000819050602082019050919050565b600081519050919050565b600081519050919050565b6000602082019050919050565b600082825260208201905092915050565b600082825260208201905092915050565b600082825260208201905092915050565b600061128b8261129e565b9050919050565b60008115159050919050565b600073ffffffffffffffffffffffffffffffffffffffff82169050919050565b6000819050919050565b60005b838110156112e65780820151818401526020810190506112cb565b838111156112f5576000848401525b50505050565b6000600282049050600182168061131357607f821691505b60208210811415611327576113266113a5565b5b50919050565b6000611338826112be565b91507fffffffffffffffffffffffffffffffffffffffffffffffffffffffffffffffff82141561136b5761136a611376565b5b600182019050919050565b7f4e487b7100000000000000000000000000000000000000000000000000000000600052601160045260246000fd5b7f4e487b7100000000000000000000000000000000000000000000000000000000600052602260045260246000fd5b6000601f19601f8301169050919050565b6113ee81611292565b81146113f957600080fd5b50565b611405816112be565b811461141057600080fd5b5056fea26469706673582212205efc41632ffc73bd3ea9daa7d7b187e8521e6f448ec6652d3f543e244fbc09e364736f6c63430008000033",
  "immutableReferences": {},
  "source": "// SPDX-License-Identifier: MIT\r\npragma solidity ^0.8.0;\r\n\r\ncontract TicketFactory {\r\n    // Define a struct named Item\r\n    struct Item {\r\n        uint256 eventId;\r\n        uint256 ticketId;\r\n        uint256 price;\r\n        string ticketType;\r\n        address owner;\r\n        bool resellable;\r\n        bool sold;\r\n        uint256 row;\r\n        uint256 column;\r\n    }\r\n\r\n    // Define a mapping to store arrays of Item structs\r\n    mapping(uint256 => Item[]) public items_map;\r\n\r\n    // Variable to keep track of the current array ID\r\n    uint public currentArrayId;\r\n\r\n        // Function to add a new array of structs to the mapping\r\n    function addItems(\r\n        uint256 _eventId, \r\n        uint256 _typeAQty, //15\r\n        uint256 _typeAPrice, //10\r\n        uint256 _typeBQty, //15\r\n        uint256 _typeBPrice, //9\r\n        uint256 _typeVIPQty, \r\n        uint256 _typeVIPPrice,\r\n        bool _resellable\r\n    ) \r\n        public \r\n    {\r\n        // Get a reference to the storage array\r\n        Item[] storage storageArray = items_map[currentArrayId];\r\n        \r\n        addItemBatch(storageArray, _eventId, _typeAQty, _typeAPrice, \"typeA\", _resellable);\r\n        addItemBatch(storageArray, _eventId, _typeBQty, _typeBPrice, \"typeB\", _resellable);\r\n        addItemBatch(storageArray, _eventId, _typeVIPQty, _typeVIPPrice, \"typeVIP\", _resellable);\r\n\r\n        currentArrayId++;\r\n    }\r\n\r\n    function addItemBatch(\r\n        Item[] storage storageArray,\r\n        uint256 _eventId, \r\n        uint256 _quantity, \r\n        uint256 _price, \r\n        string memory _itemType, \r\n        bool _resellable\r\n    ) \r\n        internal \r\n    {\r\n        uint256 currentRow = 1;\r\n        uint256 currentColumn = 1;\r\n\r\n        for (uint i = 0; i < _quantity; i++) {\r\n            storageArray.push(Item(_eventId, i, _price, _itemType, address(0), _resellable, false, currentRow, currentColumn));\r\n            currentColumn++;\r\n            if (currentColumn > 10) {\r\n                currentColumn = 1;\r\n                currentRow++;\r\n            }\r\n        }\r\n    }\r\n\r\n    function buyTicket(uint256 eventId, uint256 ticketId) public payable {\r\n        // Find the ticket in the array for the given event\r\n        Item[] storage tickets = items_map[eventId];\r\n        bool found = false;\r\n        \r\n        for (uint256 i = 0; i < tickets.length; i++) {\r\n            if (tickets[i].ticketId == ticketId) {\r\n                found = true;\r\n                require(!tickets[i].sold, \"Ticket already sold\");\r\n                require(msg.value == tickets[i].price, \"Incorrect ticket price\");\r\n\r\n                // Update the ticket owner and mark as sold\r\n                tickets[i].owner = msg.sender;\r\n                tickets[i].sold = true;\r\n\r\n                // Emit the event\r\n                break;\r\n            }\r\n        }\r\n\r\n        // If the ticket was not found, revert the transaction\r\n        require(found, \"Ticket not found\");\r\n    }\r\n\r\n    function getItem(uint arrayId, uint index) public view \r\n    returns (uint256 row, uint256 column, string memory _type) {\r\n        require(index < items_map[arrayId].length, \"Index out of bounds\");\r\n        Item storage item = items_map[arrayId][index];\r\n        return (item.row, item.column, item.ticketType);\r\n    }\r\n    \r\n    function getItemsByEvent(uint256 key) public view returns (Item[] memory) {\r\n        return items_map[key];\r\n    }\r\n}",
  "sourcePath": "C:\\Users\\edgar\\Downloads\\blockchain_project\\contracts\\ticketFactory.sol",
  "compiler": {
    "name": "solc",
    "version": "0.8.0+commit.c7dfd78e.Emscripten.clang"
  },
  "schemaVersion": "3.4.16",
  "updatedAt": "2025-02-17T00:48:10.763Z",
  "networkType": "ethereum",
  "devdoc": {
    "kind": "dev",
    "methods": {},
    "version": 1
  },
  "userdoc": {
    "kind": "user",
    "methods": {},
    "version": 1
  }
}