{
  "contractName": "TicketFactory",
  "abi": [
    {
      "inputs": [],
      "stateMutability": "nonpayable",
      "type": "constructor"
    },
    {
      "inputs": [
        {
          "internalType": "address",
          "name": "",
          "type": "address"
        }
      ],
      "name": "authorizedVerifiers",
      "outputs": [
        {
          "internalType": "bool",
          "name": "",
          "type": "bool"
        }
      ],
      "stateMutability": "view",
      "type": "function",
      "constant": true
    },
    {
      "inputs": [
        {
          "internalType": "uint256",
          "name": "",
          "type": "uint256"
        },
        {
          "internalType": "address",
          "name": "",
          "type": "address"
        }
      ],
      "name": "eventVerifiers",
      "outputs": [
        {
          "internalType": "bool",
          "name": "",
          "type": "bool"
        }
      ],
      "stateMutability": "view",
      "type": "function",
      "constant": true
    },
    {
      "inputs": [],
      "name": "owner",
      "outputs": [
        {
          "internalType": "address",
          "name": "",
          "type": "address"
        }
      ],
      "stateMutability": "view",
      "type": "function",
      "constant": true
    },
    {
      "inputs": [
        {
          "internalType": "address",
          "name": "verifier",
          "type": "address"
        }
      ],
      "name": "authorizeVerifier",
      "outputs": [],
      "stateMutability": "nonpayable",
      "type": "function"
    },
    {
      "inputs": [
        {
          "internalType": "address",
          "name": "verifier",
          "type": "address"
        }
      ],
      "name": "revokeVerifier",
      "outputs": [],
      "stateMutability": "nonpayable",
      "type": "function"
    },
    {
      "inputs": [
        {
          "internalType": "uint256",
          "name": "eventId",
          "type": "uint256"
        },
        {
          "internalType": "address",
          "name": "verifier",
          "type": "address"
        }
      ],
      "name": "authorizeEventVerifier",
      "outputs": [],
      "stateMutability": "nonpayable",
      "type": "function"
    },
    {
      "inputs": [
        {
          "internalType": "uint256",
          "name": "eventId",
          "type": "uint256"
        },
        {
          "internalType": "address",
          "name": "verifier",
          "type": "address"
        }
      ],
      "name": "revokeEventVerifier",
      "outputs": [],
      "stateMutability": "nonpayable",
      "type": "function"
    },
    {
      "inputs": [
        {
          "internalType": "uint256",
          "name": "eventId",
          "type": "uint256"
        },
        {
          "internalType": "uint256",
          "name": "typeAQty",
          "type": "uint256"
        },
        {
          "internalType": "uint256",
          "name": "typeAPrice",
          "type": "uint256"
        },
        {
          "internalType": "uint256",
          "name": "typeBQty",
          "type": "uint256"
        },
        {
          "internalType": "uint256",
          "name": "typeBPrice",
          "type": "uint256"
        },
        {
          "internalType": "uint256",
          "name": "typeVIPQty",
          "type": "uint256"
        },
        {
          "internalType": "uint256",
          "name": "typeVIPPrice",
          "type": "uint256"
        },
        {
          "internalType": "bool",
          "name": "resellable",
          "type": "bool"
        }
      ],
      "name": "generateEventTickets",
      "outputs": [],
      "stateMutability": "nonpayable",
      "type": "function"
    },
    {
      "inputs": [
        {
          "internalType": "uint256",
          "name": "eventId",
          "type": "uint256"
        },
        {
          "internalType": "uint256",
          "name": "ticketId",
          "type": "uint256"
        }
      ],
      "name": "buyTicket",
      "outputs": [],
      "stateMutability": "payable",
      "type": "function",
      "payable": true
    },
    {
      "inputs": [
        {
          "internalType": "uint256",
          "name": "eventId",
          "type": "uint256"
        }
      ],
      "name": "getTicketsByEvent",
      "outputs": [
        {
          "components": [
            {
              "internalType": "uint256",
              "name": "eventId",
              "type": "uint256"
            },
            {
              "internalType": "uint256",
              "name": "ticketId",
              "type": "uint256"
            },
            {
              "internalType": "uint256",
              "name": "price",
              "type": "uint256"
            },
            {
              "internalType": "string",
              "name": "ticketType",
              "type": "string"
            },
            {
              "internalType": "address",
              "name": "owner",
              "type": "address"
            },
            {
              "internalType": "bool",
              "name": "resellable",
              "type": "bool"
            },
            {
              "internalType": "bool",
              "name": "sold",
              "type": "bool"
            },
            {
              "internalType": "bool",
              "name": "scanned",
              "type": "bool"
            },
            {
              "internalType": "uint256",
              "name": "row",
              "type": "uint256"
            },
            {
              "internalType": "uint256",
              "name": "column",
              "type": "uint256"
            }
          ],
          "internalType": "struct TicketFactory.Item[]",
          "name": "",
          "type": "tuple[]"
        }
      ],
      "stateMutability": "view",
      "type": "function",
      "constant": true
    },
    {
      "inputs": [
        {
          "internalType": "address",
          "name": "user",
          "type": "address"
        }
      ],
      "name": "getOwnedEventIds",
      "outputs": [
        {
          "internalType": "uint256[]",
          "name": "",
          "type": "uint256[]"
        }
      ],
      "stateMutability": "view",
      "type": "function",
      "constant": true
    },
    {
      "inputs": [
        {
          "internalType": "uint256",
          "name": "eventId",
          "type": "uint256"
        },
        {
          "internalType": "uint256",
          "name": "ticketId",
          "type": "uint256"
        }
      ],
      "name": "scanTicket",
      "outputs": [],
      "stateMutability": "nonpayable",
      "type": "function"
    }
  ],
  "bytecode": "0x608060405234801561001057600080fd5b50336000806101000a81548173ffffffffffffffffffffffffffffffffffffffff021916908373ffffffffffffffffffffffffffffffffffffffff160217905550611fa1806100606000396000f3fe6080604052600436106100a65760003560e01c80636b787f09116100645780636b787f09146101bc5780638da5cb5b146101e55780639a89171614610210578063bd02a2351461024d578063c333a93e14610276578063cf7fb29f1461029f576100a6565b80625a8c18146100ab5780630c73e5c3146100d457806320ad8cab146100fd57806322c4ef0814610126578063298ec208146101635780636a61d0611461017f575b600080fd5b3480156100b757600080fd5b506100d260048036038101906100cd919061134b565b6102dc565b005b3480156100e057600080fd5b506100fb60048036038101906100f691906113c3565b6103d7565b005b34801561010957600080fd5b50610124600480360381019061011f9190611479565b6104a7565b005b34801561013257600080fd5b5061014d60048036038101906101489190611479565b610590565b60405161015a9190611564565b60405180910390f35b61017d60048036038101906101789190611586565b610627565b005b34801561018b57600080fd5b506101a660048036038101906101a191906115c6565b6108df565b6040516101b3919061183d565b60405180910390f35b3480156101c857600080fd5b506101e360048036038101906101de9190611586565b610bf2565b005b3480156101f157600080fd5b506101fa610de4565b604051610207919061186e565b60405180910390f35b34801561021c57600080fd5b5061023760048036038101906102329190611479565b610e08565b6040516102449190611898565b60405180910390f35b34801561025957600080fd5b50610274600480360381019061026f9190611479565b610e28565b005b34801561028257600080fd5b5061029d6004803603810190610298919061134b565b610f11565b005b3480156102ab57600080fd5b506102c660048036038101906102c1919061134b565b61100c565b6040516102d39190611898565b60405180910390f35b60008054906101000a900473ffffffffffffffffffffffffffffffffffffffff1673ffffffffffffffffffffffffffffffffffffffff163373ffffffffffffffffffffffffffffffffffffffff161461036a576040517f08c379a000000000000000000000000000000000000000000000000000000000815260040161036190611910565b60405180910390fd5b60006005600084815260200190815260200160002060008373ffffffffffffffffffffffffffffffffffffffff1673ffffffffffffffffffffffffffffffffffffffff16815260200190815260200160002060006101000a81548160ff0219169083151502179055505050565b6104198888886040518060400160405280600581526020017f74797065410000000000000000000000000000000000000000000000000000008152508561103b565b61045b8886866040518060400160405280600581526020017f74797065420000000000000000000000000000000000000000000000000000008152508561103b565b61049d8884846040518060400160405280600781526020017f74797065564950000000000000000000000000000000000000000000000000008152508561103b565b5050505050505050565b60008054906101000a900473ffffffffffffffffffffffffffffffffffffffff1673ffffffffffffffffffffffffffffffffffffffff163373ffffffffffffffffffffffffffffffffffffffff1614610535576040517f08c379a000000000000000000000000000000000000000000000000000000000815260040161052c90611910565b60405180910390fd5b6001600460008373ffffffffffffffffffffffffffffffffffffffff1673ffffffffffffffffffffffffffffffffffffffff16815260200190815260200160002060006101000a81548160ff02191690831515021790555050565b6060600260008373ffffffffffffffffffffffffffffffffffffffff1673ffffffffffffffffffffffffffffffffffffffff16815260200190815260200160002080548060200260200160405190810160405280929190818152602001828054801561061b57602002820191906000526020600020905b815481526020019060010190808311610607575b50505050509050919050565b600060016000848152602001908152602001600020905080600001805490508210610687576040517f08c379a000000000000000000000000000000000000000000000000000000000815260040161067e9061197c565b60405180910390fd5b600081600001838154811061069f5761069e61199c565b5b906000526020600020906007020190508060040160159054906101000a900460ff1615610701576040517f08c379a00000000000000000000000000000000000000000000000000000000081526004016106f890611a17565b60405180910390fd5b80600201543414610747576040517f08c379a000000000000000000000000000000000000000000000000000000000815260040161073e90611a83565b60405180910390fd5b338160040160006101000a81548173ffffffffffffffffffffffffffffffffffffffff021916908373ffffffffffffffffffffffffffffffffffffffff16021790555060018160040160156101000a81548160ff021916908315150217905550600360003373ffffffffffffffffffffffffffffffffffffffff1673ffffffffffffffffffffffffffffffffffffffff168152602001908152602001600020600085815260200190815260200160002060009054906101000a900460ff166108d957600260003373ffffffffffffffffffffffffffffffffffffffff1673ffffffffffffffffffffffffffffffffffffffff1681526020019081526020016000208490806001815401808255809150506001900390600052602060002001600090919091909150556001600360003373ffffffffffffffffffffffffffffffffffffffff1673ffffffffffffffffffffffffffffffffffffffff168152602001908152602001600020600086815260200190815260200160002060006101000a81548160ff0219169083151502179055505b50505050565b606060006001600084815260200190815260200160002090506000816000018054905090506000805b8281101561096b578360000181815481106109265761092561199c565b5b906000526020600020906007020160040160159054906101000a900460ff1661095857818061095490611ad2565b9250505b808061096390611ad2565b915050610908565b5060008167ffffffffffffffff81111561098857610987611b1a565b5b6040519080825280602002602001820160405280156109c157816020015b6109ae611243565b8152602001906001900390816109a65790505b5090506000805b84811015610be4578560000181815481106109e6576109e561199c565b5b906000526020600020906007020160040160159054906101000a900460ff16610bd157856000018181548110610a1f57610a1e61199c565b5b906000526020600020906007020160405180610140016040529081600082015481526020016001820154815260200160028201548152602001600382018054610a6790611b78565b80601f0160208091040260200160405190810160405280929190818152602001828054610a9390611b78565b8015610ae05780601f10610ab557610100808354040283529160200191610ae0565b820191906000526020600020905b815481529060010190602001808311610ac357829003601f168201915b505050505081526020016004820160009054906101000a900473ffffffffffffffffffffffffffffffffffffffff1673ffffffffffffffffffffffffffffffffffffffff1673ffffffffffffffffffffffffffffffffffffffff1681526020016004820160149054906101000a900460ff161515151581526020016004820160159054906101000a900460ff161515151581526020016004820160169054906101000a900460ff1615151515815260200160058201548152602001600682015481525050838381518110610bb757610bb661199c565b5b60200260200101819052508180610bcd90611ad2565b9250505b8080610bdc90611ad2565b9150506109c8565b508195505050505050919050565b81600460003373ffffffffffffffffffffffffffffffffffffffff1673ffffffffffffffffffffffffffffffffffffffff16815260200190815260200160002060009054906101000a900460ff1680610ca557506005600082815260200190815260200160002060003373ffffffffffffffffffffffffffffffffffffffff1673ffffffffffffffffffffffffffffffffffffffff16815260200190815260200160002060009054906101000a900460ff165b610ce4576040517f08c379a0000000000000000000000000000000000000000000000000000000008152600401610cdb90611bf5565b60405180910390fd5b6000600160008581526020019081526020016000206000018381548110610d0e57610d0d61199c565b5b906000526020600020906007020190508060040160159054906101000a900460ff16610d6f576040517f08c379a0000000000000000000000000000000000000000000000000000000008152600401610d6690611c61565b60405180910390fd5b8060040160169054906101000a900460ff1615610dc1576040517f08c379a0000000000000000000000000000000000000000000000000000000008152600401610db890611ccd565b60405180910390fd5b60018160040160166101000a81548160ff02191690831515021790555050505050565b60008054906101000a900473ffffffffffffffffffffffffffffffffffffffff1681565b60046020528060005260406000206000915054906101000a900460ff1681565b60008054906101000a900473ffffffffffffffffffffffffffffffffffffffff1673ffffffffffffffffffffffffffffffffffffffff163373ffffffffffffffffffffffffffffffffffffffff1614610eb6576040517f08c379a0000000000000000000000000000000000000000000000000000000008152600401610ead90611910565b60405180910390fd5b6000600460008373ffffffffffffffffffffffffffffffffffffffff1673ffffffffffffffffffffffffffffffffffffffff16815260200190815260200160002060006101000a81548160ff02191690831515021790555050565b60008054906101000a900473ffffffffffffffffffffffffffffffffffffffff1673ffffffffffffffffffffffffffffffffffffffff163373ffffffffffffffffffffffffffffffffffffffff1614610f9f576040517f08c379a0000000000000000000000000000000000000000000000000000000008152600401610f9690611910565b60405180910390fd5b60016005600084815260200190815260200160002060008373ffffffffffffffffffffffffffffffffffffffff1673ffffffffffffffffffffffffffffffffffffffff16815260200190815260200160002060006101000a81548160ff0219169083151502179055505050565b60056020528160005260406000206020528060005260406000206000915091509054906101000a900460ff1681565b600060016000878152602001908152602001600020905060006001905060006001905060005b8781101561123857600084600001805490509050846000016040518061014001604052808c81526020018381526020018a8152602001898152602001600073ffffffffffffffffffffffffffffffffffffffff1681526020018815158152602001600015158152602001600015158152602001868152602001858152509080600181540180825580915050600190039060005260206000209060070201600090919091909150600082015181600001556020820151816001015560408201518160020155606082015181600301908161113a9190611e99565b5060808201518160040160006101000a81548173ffffffffffffffffffffffffffffffffffffffff021916908373ffffffffffffffffffffffffffffffffffffffff16021790555060a08201518160040160146101000a81548160ff02191690831515021790555060c08201518160040160156101000a81548160ff02191690831515021790555060e08201518160040160166101000a81548160ff021916908315150217905550610100820151816005015561012082015181600601555050828061120590611ad2565b935050600a8311156112245760019250838061122090611ad2565b9450505b50808061123090611ad2565b915050611061565b505050505050505050565b60405180610140016040528060008152602001600081526020016000815260200160608152602001600073ffffffffffffffffffffffffffffffffffffffff16815260200160001515815260200160001515815260200160001515815260200160008152602001600081525090565b600080fd5b6000819050919050565b6112ca816112b7565b81146112d557600080fd5b50565b6000813590506112e7816112c1565b92915050565b600073ffffffffffffffffffffffffffffffffffffffff82169050919050565b6000611318826112ed565b9050919050565b6113288161130d565b811461133357600080fd5b50565b6000813590506113458161131f565b92915050565b60008060408385031215611362576113616112b2565b5b6000611370858286016112d8565b925050602061138185828601611336565b9150509250929050565b60008115159050919050565b6113a08161138b565b81146113ab57600080fd5b50565b6000813590506113bd81611397565b92915050565b600080600080600080600080610100898b0312156113e4576113e36112b2565b5b60006113f28b828c016112d8565b98505060206114038b828c016112d8565b97505060406114148b828c016112d8565b96505060606114258b828c016112d8565b95505060806114368b828c016112d8565b94505060a06114478b828c016112d8565b93505060c06114588b828c016112d8565b92505060e06114698b828c016113ae565b9150509295985092959890939650565b60006020828403121561148f5761148e6112b2565b5b600061149d84828501611336565b91505092915050565b600081519050919050565b600082825260208201905092915050565b6000819050602082019050919050565b6114db816112b7565b82525050565b60006114ed83836114d2565b60208301905092915050565b6000602082019050919050565b6000611511826114a6565b61151b81856114b1565b9350611526836114c2565b8060005b8381101561155757815161153e88826114e1565b9750611549836114f9565b92505060018101905061152a565b5085935050505092915050565b6000602082019050818103600083015261157e8184611506565b905092915050565b6000806040838503121561159d5761159c6112b2565b5b60006115ab858286016112d8565b92505060206115bc858286016112d8565b9150509250929050565b6000602082840312156115dc576115db6112b2565b5b60006115ea848285016112d8565b91505092915050565b600081519050919050565b600082825260208201905092915050565b6000819050602082019050919050565b600081519050919050565b600082825260208201905092915050565b60005b8381101561165957808201518184015260208101905061163e565b60008484015250505050565b6000601f19601f8301169050919050565b60006116818261161f565b61168b818561162a565b935061169b81856020860161163b565b6116a481611665565b840191505092915050565b6116b88161130d565b82525050565b6116c78161138b565b82525050565b6000610140830160008301516116e660008601826114d2565b5060208301516116f960208601826114d2565b50604083015161170c60408601826114d2565b50606083015184820360608601526117248282611676565b915050608083015161173960808601826116af565b5060a083015161174c60a08601826116be565b5060c083015161175f60c08601826116be565b5060e083015161177260e08601826116be565b506101008301516117876101008601826114d2565b5061012083015161179c6101208601826114d2565b508091505092915050565b60006117b383836116cd565b905092915050565b6000602082019050919050565b60006117d3826115f3565b6117dd81856115fe565b9350836020820285016117ef8561160f565b8060005b8581101561182b578484038952815161180c85826117a7565b9450611817836117bb565b925060208a019950506001810190506117f3565b50829750879550505050505092915050565b6000602082019050818103600083015261185781846117c8565b905092915050565b6118688161130d565b82525050565b6000602082019050611883600083018461185f565b92915050565b6118928161138b565b82525050565b60006020820190506118ad6000830184611889565b92915050565b600082825260208201905092915050565b7f4f6e6c79206f776e65722063616e2063616c6c20746869730000000000000000600082015250565b60006118fa6018836118b3565b9150611905826118c4565b602082019050919050565b60006020820190508181036000830152611929816118ed565b9050919050565b7f496e76616c6964207469636b6574496400000000000000000000000000000000600082015250565b60006119666010836118b3565b915061197182611930565b602082019050919050565b6000602082019050818103600083015261199581611959565b9050919050565b7f4e487b7100000000000000000000000000000000000000000000000000000000600052603260045260246000fd5b7f5469636b657420616c726561647920736f6c6400000000000000000000000000600082015250565b6000611a016013836118b3565b9150611a0c826119cb565b602082019050919050565b60006020820190508181036000830152611a30816119f4565b9050919050565b7f496e636f7272656374207061796d656e7420616d6f756e740000000000000000600082015250565b6000611a6d6018836118b3565b9150611a7882611a37565b602082019050919050565b60006020820190508181036000830152611a9c81611a60565b9050919050565b7f4e487b7100000000000000000000000000000000000000000000000000000000600052601160045260246000fd5b6000611add826112b7565b91507fffffffffffffffffffffffffffffffffffffffffffffffffffffffffffffffff8203611b0f57611b0e611aa3565b5b600182019050919050565b7f4e487b7100000000000000000000000000000000000000000000000000000000600052604160045260246000fd5b7f4e487b7100000000000000000000000000000000000000000000000000000000600052602260045260246000fd5b60006002820490506001821680611b9057607f821691505b602082108103611ba357611ba2611b49565b5b50919050565b7f4e6f7420616e20617574686f72697a6564207665726966696572000000000000600082015250565b6000611bdf601a836118b3565b9150611bea82611ba9565b602082019050919050565b60006020820190508181036000830152611c0e81611bd2565b9050919050565b7f5469636b6574206e6f7420736f6c640000000000000000000000000000000000600082015250565b6000611c4b600f836118b3565b9150611c5682611c15565b602082019050919050565b60006020820190508181036000830152611c7a81611c3e565b9050919050565b7f5469636b657420616c7265616479207363616e6e656400000000000000000000600082015250565b6000611cb76016836118b3565b9150611cc282611c81565b602082019050919050565b60006020820190508181036000830152611ce681611caa565b9050919050565b60008190508160005260206000209050919050565b60006020601f8301049050919050565b600082821b905092915050565b600060088302611d4f7fffffffffffffffffffffffffffffffffffffffffffffffffffffffffffffffff82611d12565b611d598683611d12565b95508019841693508086168417925050509392505050565b6000819050919050565b6000611d96611d91611d8c846112b7565b611d71565b6112b7565b9050919050565b6000819050919050565b611db083611d7b565b611dc4611dbc82611d9d565b848454611d1f565b825550505050565b600090565b611dd9611dcc565b611de4818484611da7565b505050565b5b81811015611e0857611dfd600082611dd1565b600181019050611dea565b5050565b601f821115611e4d57611e1e81611ced565b611e2784611d02565b81016020851015611e36578190505b611e4a611e4285611d02565b830182611de9565b50505b505050565b600082821c905092915050565b6000611e7060001984600802611e52565b1980831691505092915050565b6000611e898383611e5f565b9150826002028217905092915050565b611ea28261161f565b67ffffffffffffffff811115611ebb57611eba611b1a565b5b611ec58254611b78565b611ed0828285611e0c565b600060209050601f831160018114611f035760008415611ef1578287015190505b611efb8582611e7d565b865550611f63565b601f198416611f1186611ced565b60005b82811015611f3957848901518255600182019150602085019450602081019050611f14565b86831015611f565784890151611f52601f891682611e5f565b8355505b6001600288020188555050505b50505050505056fea26469706673582212206c1f3d49d22796d376f7c020edcf0ab387539003792ff066ce08e3b678c6dd6864736f6c63430008110033",
  "immutableReferences": {},
  "source": "// SPDX-License-Identifier: MIT\r\npragma solidity ^0.8.17;\r\n\r\ncontract TicketFactory {\r\n    address public owner;\r\n\r\n    constructor() {\r\n        owner = msg.sender;\r\n    }\r\n\r\n    struct Item {\r\n        uint256 eventId;\r\n        uint256 ticketId;\r\n        uint256 price;\r\n        string ticketType;\r\n        address owner;\r\n        bool resellable;\r\n        bool sold;\r\n        bool scanned;\r\n        uint256 row;\r\n        uint256 column;\r\n    }\r\n\r\n    struct EventTickets {\r\n        Item[] items;\r\n    }\r\n\r\n    // Mapping from eventId to tickets\r\n    mapping(uint256 => EventTickets) private ticketsPerEvent;\r\n\r\n    // Track events owned by each address\r\n    mapping(address => uint256[]) private ownedEventIds;\r\n    mapping(address => mapping(uint256 => bool)) private hasEvent;\r\n\r\n    // Global authorized verifiers\r\n    mapping(address => bool) public authorizedVerifiers;\r\n\r\n    // Per-event authorized verifiers\r\n    mapping(uint256 => mapping(address => bool)) public eventVerifiers;\r\n\r\n    // Modifiers\r\n    modifier onlyOwner() {\r\n        require(msg.sender == owner, \"Only owner can call this\");\r\n        _;\r\n    }\r\n\r\n    modifier onlyVerifier(uint256 eventId) {\r\n        require(\r\n            authorizedVerifiers[msg.sender] || eventVerifiers[eventId][msg.sender],\r\n            \"Not an authorized verifier\"\r\n        );\r\n        _;\r\n    }\r\n\r\n    // Owner can authorize/revoke global verifiers\r\n    function authorizeVerifier(address verifier) external onlyOwner {\r\n        authorizedVerifiers[verifier] = true;\r\n    }\r\n\r\n    function revokeVerifier(address verifier) external onlyOwner {\r\n        authorizedVerifiers[verifier] = false;\r\n    }\r\n\r\n    // Owner can authorize/revoke event-specific verifiers\r\n    function authorizeEventVerifier(uint256 eventId, address verifier) external onlyOwner {\r\n        eventVerifiers[eventId][verifier] = true;\r\n    }\r\n\r\n    function revokeEventVerifier(uint256 eventId, address verifier) external onlyOwner {\r\n        eventVerifiers[eventId][verifier] = false;\r\n    }\r\n\r\n    // Generate tickets - open to everyone (no restrictions)\r\n    function generateEventTickets(\r\n        uint256 eventId,\r\n        uint256 typeAQty,\r\n        uint256 typeAPrice,\r\n        uint256 typeBQty,\r\n        uint256 typeBPrice,\r\n        uint256 typeVIPQty,\r\n        uint256 typeVIPPrice,\r\n        bool resellable\r\n    ) external {\r\n        _addTickets(eventId, typeAQty, typeAPrice, \"typeA\", resellable);\r\n        _addTickets(eventId, typeBQty, typeBPrice, \"typeB\", resellable);\r\n        _addTickets(eventId, typeVIPQty, typeVIPPrice, \"typeVIP\", resellable);\r\n    }\r\n\r\n    // Internal add tickets\r\n    function _addTickets(\r\n        uint256 eventId,\r\n        uint256 quantity,\r\n        uint256 price,\r\n        string memory ticketType,\r\n        bool resellable\r\n    ) internal {\r\n        EventTickets storage eventTickets = ticketsPerEvent[eventId];\r\n\r\n        uint256 currentRow = 1;\r\n        uint256 currentColumn = 1;\r\n\r\n        for (uint256 i = 0; i < quantity; i++) {\r\n            uint256 ticketId = eventTickets.items.length;\r\n            eventTickets.items.push(Item({\r\n                eventId: eventId,\r\n                ticketId: ticketId,\r\n                price: price,\r\n                ticketType: ticketType,\r\n                owner: address(0),\r\n                resellable: resellable,\r\n                sold: false,\r\n                scanned: false,\r\n                row: currentRow,\r\n                column: currentColumn\r\n            }));\r\n\r\n            currentColumn++;\r\n            if (currentColumn > 10) {\r\n                currentColumn = 1;\r\n                currentRow++;\r\n            }\r\n        }\r\n    }\r\n\r\n    // Buy ticket\r\n    function buyTicket(uint256 eventId, uint256 ticketId) external payable {\r\n        EventTickets storage eventTickets = ticketsPerEvent[eventId];\r\n        require(ticketId < eventTickets.items.length, \"Invalid ticketId\");\r\n\r\n        Item storage ticket = eventTickets.items[ticketId];\r\n\r\n        require(!ticket.sold, \"Ticket already sold\");\r\n        require(msg.value == ticket.price, \"Incorrect payment amount\");\r\n\r\n        ticket.owner = msg.sender;\r\n        ticket.sold = true;\r\n\r\n        if (!hasEvent[msg.sender][eventId]) {\r\n            ownedEventIds[msg.sender].push(eventId);\r\n            hasEvent[msg.sender][eventId] = true;\r\n        }\r\n    }\r\n\r\n    // Get unsold tickets\r\n    function getTicketsByEvent(uint256 eventId) external view returns(Item[] memory) {\r\n        EventTickets storage eventTickets = ticketsPerEvent[eventId];\r\n        uint256 total = eventTickets.items.length;\r\n\r\n        uint256 unsoldCount = 0;\r\n        for (uint256 i = 0; i < total; i++) {\r\n            if (!eventTickets.items[i].sold) {\r\n                unsoldCount++;\r\n            }\r\n        }\r\n\r\n        Item[] memory unsoldTickets = new Item[](unsoldCount);\r\n        uint256 index = 0;\r\n\r\n        for (uint256 i = 0; i < total; i++) {\r\n            if (!eventTickets.items[i].sold) {\r\n                unsoldTickets[index] = eventTickets.items[i];\r\n                index++;\r\n            }\r\n        }\r\n\r\n        return unsoldTickets;\r\n    }\r\n\r\n    // Get owned event IDs for a user\r\n    function getOwnedEventIds(address user) external view returns(uint256[] memory) {\r\n        return ownedEventIds[user];\r\n    }\r\n\r\n    // Scan ticket - only authorized verifiers\r\n    function scanTicket(uint256 eventId, uint256 ticketId) external onlyVerifier(eventId) {\r\n        Item storage ticket = ticketsPerEvent[eventId].items[ticketId];\r\n        require(ticket.sold, \"Ticket not sold\");\r\n        require(!ticket.scanned, \"Ticket already scanned\");\r\n        ticket.scanned = true;\r\n    }\r\n}\r\n",
  "sourcePath": "C:\\Users\\edgar\\Downloads\\blockchain_project\\contracts\\TicketFactory.sol",
  "compiler": {
    "name": "solc",
    "version": "0.8.17+commit.8df45f5f.Emscripten.clang"
  },
  "schemaVersion": "3.4.16",
  "updatedAt": "2025-07-14T00:53:48.360Z",
  "networkType": "ethereum",
  "devdoc": {
    "kind": "dev",
    "methods": {},
    "version": 1
  },
  "userdoc": {
    "kind": "user",
    "methods": {},
    "version": 1
  }
}